{
  "_format": "hh-sol-artifact-1",
  "contractName": "Casino",
  "sourceName": "contracts/Casino.sol",
  "abi": [
    {
      "anonymous": false,
      "inputs": [
        {
          "indexed": false,
          "internalType": "contract Game",
          "name": "game",
          "type": "address"
        }
      ],
      "name": "newGame",
      "type": "event"
    },
    {
      "inputs": [
        {
          "internalType": "contract Gambler",
          "name": "gambler",
          "type": "address"
        }
      ],
      "name": "createGame",
      "outputs": [],
      "stateMutability": "payable",
      "type": "function"
    },
    {
      "inputs": [
        {
          "internalType": "contract Gambler",
          "name": "",
          "type": "address"
        }
      ],
      "name": "gamblerRegistered",
      "outputs": [
        {
          "internalType": "bool",
          "name": "",
          "type": "bool"
        }
      ],
      "stateMutability": "view",
      "type": "function"
    },
    {
      "inputs": [
        {
          "internalType": "uint256",
          "name": "",
          "type": "uint256"
        }
      ],
      "name": "gamblers",
      "outputs": [
        {
          "internalType": "contract Gambler",
          "name": "",
          "type": "address"
        }
      ],
      "stateMutability": "view",
      "type": "function"
    },
    {
      "inputs": [
        {
          "internalType": "uint256",
          "name": "",
          "type": "uint256"
        }
      ],
      "name": "games",
      "outputs": [
        {
          "internalType": "contract Game",
          "name": "",
          "type": "address"
        }
      ],
      "stateMutability": "view",
      "type": "function"
    },
    {
      "inputs": [],
      "name": "getGamblers",
      "outputs": [
        {
          "internalType": "contract Gambler[]",
          "name": "",
          "type": "address[]"
        }
      ],
      "stateMutability": "view",
      "type": "function"
    },
    {
      "inputs": [],
      "name": "getGameCount",
      "outputs": [
        {
          "internalType": "uint256",
          "name": "",
          "type": "uint256"
        }
      ],
      "stateMutability": "view",
      "type": "function"
    },
    {
      "inputs": [],
      "name": "getGames",
      "outputs": [
        {
          "internalType": "contract Game[]",
          "name": "",
          "type": "address[]"
        }
      ],
      "stateMutability": "view",
      "type": "function"
    },
    {
      "inputs": [
        {
          "internalType": "contract Gambler",
          "name": "gambler",
          "type": "address"
        }
      ],
      "name": "registerGambler",
      "outputs": [],
      "stateMutability": "nonpayable",
      "type": "function"
    }
  ],
  "bytecode": "0x608060405234801561001057600080fd5b506117ac806100206000396000f3fe60806040526004361061007b5760003560e01c80632aaf9c661161004e5780632aaf9c661461014e578063474d0b5a1461018b578063c04c5947146101a7578063e87c0ee6146101d25761007b565b806309eeebb014610080578063117a5b90146100ab57806322ee04c5146100e85780632511578514610111575b600080fd5b34801561008c57600080fd5b506100956101fd565b6040516100a291906107ea565b60405180910390f35b3480156100b757600080fd5b506100d260048036038101906100cd919061067b565b61028b565b6040516100df9190610864565b60405180910390f35b3480156100f457600080fd5b5061010f600480360381019061010a9190610652565b6102ca565b005b34801561011d57600080fd5b5061013860048036038101906101339190610652565b6103e2565b604051610145919061082e565b60405180910390f35b34801561015a57600080fd5b506101756004803603810190610170919061067b565b610402565b6040516101829190610849565b60405180910390f35b6101a560048036038101906101a09190610652565b610441565b005b3480156101b357600080fd5b506101bc610581565b6040516101c9919061080c565b60405180910390f35b3480156101de57600080fd5b506101e761060f565b6040516101f4919061087f565b60405180910390f35b6060600180548060200260200160405190810160405280929190818152602001828054801561028157602002820191906000526020600020905b8160009054906101000a900473ffffffffffffffffffffffffffffffffffffffff1673ffffffffffffffffffffffffffffffffffffffff1681526020019060010190808311610237575b5050505050905090565b6000818154811061029b57600080fd5b906000526020600020016000915054906101000a900473ffffffffffffffffffffffffffffffffffffffff1681565b60001515600260008373ffffffffffffffffffffffffffffffffffffffff1673ffffffffffffffffffffffffffffffffffffffff16815260200190815260200160002060009054906101000a900460ff16151514156103df576001819080600181540180825580915050600190039060005260206000200160009091909190916101000a81548173ffffffffffffffffffffffffffffffffffffffff021916908373ffffffffffffffffffffffffffffffffffffffff1602179055506001600260008373ffffffffffffffffffffffffffffffffffffffff1673ffffffffffffffffffffffffffffffffffffffff16815260200190815260200160002060006101000a81548160ff0219169083151502179055505b50565b60026020528060005260406000206000915054906101000a900460ff1681565b6001818154811061041257600080fd5b906000526020600020016000915054906101000a900473ffffffffffffffffffffffffffffffffffffffff1681565b600060405161044f9061061b565b604051809103906000f08015801561046b573d6000803e3d6000fd5b5090508073ffffffffffffffffffffffffffffffffffffffff1663dd0b281e34846040518363ffffffff1660e01b81526004016104a89190610849565b6000604051808303818588803b1580156104c157600080fd5b505af11580156104d5573d6000803e3d6000fd5b50505050506000819080600181540180825580915050600190039060005260206000200160009091909190916101000a81548173ffffffffffffffffffffffffffffffffffffffff021916908373ffffffffffffffffffffffffffffffffffffffff160217905550610546826102ca565b7fc2e0b1e6e837332213858efe04fb920ca173dd36abb6951b9205d688cc04a682816040516105759190610864565b60405180910390a15050565b6060600080548060200260200160405190810160405280929190818152602001828054801561060557602002820191906000526020600020905b8160009054906101000a900473ffffffffffffffffffffffffffffffffffffffff1673ffffffffffffffffffffffffffffffffffffffff16815260200190600101908083116105bb575b5050505050905090565b60008080549050905090565b610dab806109cc83390190565b6000813590506106378161099d565b92915050565b60008135905061064c816109b4565b92915050565b60006020828403121561066457600080fd5b600061067284828501610628565b91505092915050565b60006020828403121561068d57600080fd5b600061069b8482850161063d565b91505092915050565b60006106b0838361079f565b60208301905092915050565b60006106c883836107bd565b60208301905092915050565b60006106df826108ba565b6106e981856108ea565b93506106f48361089a565b8060005b8381101561072557815161070c88826106a4565b9750610717836108d0565b9250506001810190506106f8565b5085935050505092915050565b600061073d826108c5565b61074781856108ea565b9350610752836108aa565b8060005b8381101561078357815161076a88826106bc565b9750610775836108dd565b925050600181019050610756565b5085935050505092915050565b6107998161090d565b82525050565b6107a881610955565b82525050565b6107b781610955565b82525050565b6107c681610979565b82525050565b6107d581610979565b82525050565b6107e48161094b565b82525050565b6000602082019050818103600083015261080481846106d4565b905092915050565b600060208201905081810360008301526108268184610732565b905092915050565b60006020820190506108436000830184610790565b92915050565b600060208201905061085e60008301846107ae565b92915050565b600060208201905061087960008301846107cc565b92915050565b600060208201905061089460008301846107db565b92915050565b6000819050602082019050919050565b6000819050602082019050919050565b600081519050919050565b600081519050919050565b6000602082019050919050565b6000602082019050919050565b600082825260208201905092915050565b60006109068261092b565b9050919050565b60008115159050919050565b6000610924826108fb565b9050919050565b600073ffffffffffffffffffffffffffffffffffffffff82169050919050565b6000819050919050565b600061096082610967565b9050919050565b60006109728261092b565b9050919050565b60006109848261098b565b9050919050565b60006109968261092b565b9050919050565b6109a681610919565b81146109b157600080fd5b50565b6109bd8161094b565b81146109c857600080fd5b5056fe60806040526127106000556000600260006101000a81548160ff02191690831515021790555034801561003157600080fd5b50610d6a806100416000396000f3fe60806040526004361061007b5760003560e01c8063d30895e41161004e578063d30895e41461012c578063dd0b281e14610157578063dfbf53ae14610173578063e492814f1461019e5761007b565b806359a5f12d146100805780636b3039b7146100ab5780639b2cb5d8146100d6578063bef4876b14610101575b600080fd5b34801561008c57600080fd5b506100956101ba565b6040516100a291906109c7565b60405180910390f35b3480156100b757600080fd5b506100c06101e0565b6040516100cd9190610a9d565b60405180910390f35b3480156100e257600080fd5b506100eb6101e6565b6040516100f89190610a9d565b60405180910390f35b34801561010d57600080fd5b506101166101ec565b60405161012391906109ac565b60405180910390f35b34801561013857600080fd5b506101416101ff565b60405161014e91906109c7565b60405180910390f35b610171600480360381019061016c9190610855565b610225565b005b34801561017f57600080fd5b506101886102b5565b60405161019591906109c7565b60405180910390f35b6101b860048036038101906101b39190610855565b6102db565b005b600360009054906101000a900473ffffffffffffffffffffffffffffffffffffffff1681565b60015481565b60005481565b600260009054906101000a900460ff1681565b600260019054906101000a900473ffffffffffffffffffffffffffffffffffffffff1681565b60005434101561026a576040517f08c379a000000000000000000000000000000000000000000000000000000000815260040161026190610a5d565b60405180910390fd5b80600260016101000a81548173ffffffffffffffffffffffffffffffffffffffff021916908373ffffffffffffffffffffffffffffffffffffffff1602179055503460018190555050565b600460009054906101000a900473ffffffffffffffffffffffffffffffffffffffff1681565b600260009054906101000a900460ff161561032b576040517f08c379a000000000000000000000000000000000000000000000000000000000815260040161032290610a3d565b60405180910390fd5b600073ffffffffffffffffffffffffffffffffffffffff16600260019054906101000a900473ffffffffffffffffffffffffffffffffffffffff1673ffffffffffffffffffffffffffffffffffffffff1614156103bd576040517f08c379a00000000000000000000000000000000000000000000000000000000081526004016103b490610a7d565b60405180910390fd5b8073ffffffffffffffffffffffffffffffffffffffff1663767800de6040518163ffffffff1660e01b815260040160206040518083038186803b15801561040357600080fd5b505afa158015610417573d6000803e3d6000fd5b505050506040513d601f19601f8201168201806040525081019061043b919061082c565b73ffffffffffffffffffffffffffffffffffffffff16600260019054906101000a900473ffffffffffffffffffffffffffffffffffffffff1673ffffffffffffffffffffffffffffffffffffffff1663767800de6040518163ffffffff1660e01b815260040160206040518083038186803b1580156104b957600080fd5b505afa1580156104cd573d6000803e3d6000fd5b505050506040513d601f19601f820116820180604052508101906104f1919061082c565b73ffffffffffffffffffffffffffffffffffffffff161415610548576040517f08c379a000000000000000000000000000000000000000000000000000000000815260040161053f906109fd565b60405180910390fd5b600154341461058c576040517f08c379a000000000000000000000000000000000000000000000000000000000815260040161058390610a1d565b60405180910390fd5b6001600260006101000a81548160ff02191690831515021790555080600360006101000a81548173ffffffffffffffffffffffffffffffffffffffff021916908373ffffffffffffffffffffffffffffffffffffffff160217905550600060026105f46107c3565b6105fe9190610bb3565b905060008160ff16141561067457600360009054906101000a900473ffffffffffffffffffffffffffffffffffffffff16600460006101000a81548173ffffffffffffffffffffffffffffffffffffffff021916908373ffffffffffffffffffffffffffffffffffffffff1602179055506106d8565b600260019054906101000a900473ffffffffffffffffffffffffffffffffffffffff16600460006101000a81548173ffffffffffffffffffffffffffffffffffffffff021916908373ffffffffffffffffffffffffffffffffffffffff1602179055505b600460009054906101000a900473ffffffffffffffffffffffffffffffffffffffff1673ffffffffffffffffffffffffffffffffffffffff1663e7c974a847306040518363ffffffff1660e01b815260040161073491906109e2565b6000604051808303818588803b15801561074d57600080fd5b505af1158015610761573d6000803e3d6000fd5b50505050507f81e97563510fc38d40a27c898055562062927ad214b195ca16800560a5884875600460009054906101000a900473ffffffffffffffffffffffffffffffffffffffff166040516107b791906109c7565b60405180910390a15050565b600060fb42446040516020016107da929190610980565b6040516020818303038152906040528051906020012060001c6107fd9190610b82565b905090565b60008151905061081181610d06565b92915050565b60008135905061082681610d1d565b92915050565b60006020828403121561083e57600080fd5b600061084c84828501610802565b91505092915050565b60006020828403121561086757600080fd5b600061087584828501610817565b91505092915050565b61088781610adb565b82525050565b61089681610b30565b82525050565b6108a581610b54565b82525050565b60006108b8601a83610ab8565b91506108c382610c13565b602082019050919050565b60006108db601f83610ab8565b91506108e682610c3c565b602082019050919050565b60006108fe601083610ab8565b915061090982610c65565b602082019050919050565b6000610921602c83610ab8565b915061092c82610c8e565b604082019050919050565b6000610944601283610ab8565b915061094f82610cdd565b602082019050919050565b61096381610b19565b82525050565b61097a61097582610b19565b610b78565b82525050565b600061098c8285610969565b60208201915061099c8284610969565b6020820191508190509392505050565b60006020820190506109c1600083018461087e565b92915050565b60006020820190506109dc600083018461088d565b92915050565b60006020820190506109f7600083018461089c565b92915050565b60006020820190508181036000830152610a16816108ab565b9050919050565b60006020820190508181036000830152610a36816108ce565b9050919050565b60006020820190508181036000830152610a56816108f1565b9050919050565b60006020820190508181036000830152610a7681610914565b9050919050565b60006020820190508181036000830152610a9681610937565b9050919050565b6000602082019050610ab2600083018461095a565b92915050565b600082825260208201905092915050565b6000610ad482610af9565b9050919050565b60008115159050919050565b6000610af282610ac9565b9050919050565b600073ffffffffffffffffffffffffffffffffffffffff82169050919050565b6000819050919050565b600060ff82169050919050565b6000610b3b82610b42565b9050919050565b6000610b4d82610af9565b9050919050565b6000610b5f82610b66565b9050919050565b6000610b7182610af9565b9050919050565b6000819050919050565b6000610b8d82610b19565b9150610b9883610b19565b925082610ba857610ba7610be4565b5b828206905092915050565b6000610bbe82610b23565b9150610bc983610b23565b925082610bd957610bd8610be4565b5b828206905092915050565b7f4e487b7100000000000000000000000000000000000000000000000000000000600052601260045260246000fd5b7f506c6179657220616c726561647920696e207468652067616d65000000000000600082015250565b7f596f75206861766520746f2073656e64207468652062697420616d6f756e7400600082015250565b7f47616d652069732066696e697368656400000000000000000000000000000000600082015250565b7f596f75206861766520746f20626574206d6f7265207468616e20746865206d6960008201527f6e696d756d20616d6f756e740000000000000000000000000000000000000000602082015250565b7f53746172746572206973206e6f74207365740000000000000000000000000000600082015250565b610d0f81610ac9565b8114610d1a57600080fd5b50565b610d2681610ae7565b8114610d3157600080fd5b5056fea264697066735822122065b1c0e22684b0c7554f3a81328ea2a4ebb2127f35d162336b8f51b43999b94a64736f6c63430008020033a26469706673582212208f448b591ac38ee3cb0a51d78a6fe2d7e6583a72bb9a582a812a45d853fb99b064736f6c63430008020033",
  "linkReferences": {},
  "deployedLinkReferences": {}
}