{
  "_format": "hh-sol-artifact-1",
  "contractName": "Gambler",
  "sourceName": "contracts/Casino.sol",
  "abi": [
    {
      "inputs": [
        {
          "internalType": "address",
          "name": "gamblerAddress",
          "type": "address"
        },
        {
          "internalType": "string",
          "name": "gamblerName",
          "type": "string"
        }
      ],
      "stateMutability": "nonpayable",
      "type": "constructor"
    },
    {
      "inputs": [],
      "name": "addr",
      "outputs": [
        {
          "internalType": "address",
          "name": "",
          "type": "address"
        }
      ],
      "stateMutability": "view",
      "type": "function"
    },
    {
      "inputs": [
        {
          "internalType": "uint256",
          "name": "",
          "type": "uint256"
        }
      ],
      "name": "gamblerGames",
      "outputs": [
        {
          "internalType": "address",
          "name": "",
          "type": "address"
        }
      ],
      "stateMutability": "view",
      "type": "function"
    },
    {
      "inputs": [
        {
          "internalType": "uint256",
          "name": "",
          "type": "uint256"
        }
      ],
      "name": "gamesWon",
      "outputs": [
        {
          "internalType": "address",
          "name": "",
          "type": "address"
        }
      ],
      "stateMutability": "view",
      "type": "function"
    },
    {
      "inputs": [],
      "name": "name",
      "outputs": [
        {
          "internalType": "string",
          "name": "",
          "type": "string"
        }
      ],
      "stateMutability": "view",
      "type": "function"
    },
    {
      "inputs": [],
      "name": "numGamesWon",
      "outputs": [
        {
          "internalType": "uint256",
          "name": "",
          "type": "uint256"
        }
      ],
      "stateMutability": "view",
      "type": "function"
    },
    {
      "inputs": [
        {
          "internalType": "contract Game",
          "name": "gameWon",
          "type": "address"
        }
      ],
      "name": "receivePrize",
      "outputs": [],
      "stateMutability": "payable",
      "type": "function"
    },
    {
      "inputs": [],
      "name": "withdraw",
      "outputs": [],
      "stateMutability": "nonpayable",
      "type": "function"
    }
  ],
  "bytecode": "0x60806040526000600460006101000a81548160ff0219169083151502179055503480156200002c57600080fd5b5060405162000ddd38038062000ddd8339818101604052810190620000529190620001ed565b81600260006101000a81548173ffffffffffffffffffffffffffffffffffffffff021916908373ffffffffffffffffffffffffffffffffffffffff1602179055508060039080519060200190620000ab929190620000b4565b50505062000405565b828054620000c29062000310565b90600052602060002090601f016020900481019282620000e6576000855562000132565b82601f106200010157805160ff191683800117855562000132565b8280016001018555821562000132579182015b828111156200013157825182559160200191906001019062000114565b5b50905062000141919062000145565b5090565b5b808211156200016057600081600090555060010162000146565b5090565b60006200017b620001758462000270565b62000247565b9050828152602081018484840111156200019457600080fd5b620001a1848285620002da565b509392505050565b600081519050620001ba81620003eb565b92915050565b600082601f830112620001d257600080fd5b8151620001e484826020860162000164565b91505092915050565b600080604083850312156200020157600080fd5b60006200021185828601620001a9565b925050602083015167ffffffffffffffff8111156200022f57600080fd5b6200023d85828601620001c0565b9150509250929050565b60006200025362000266565b905062000261828262000346565b919050565b6000604051905090565b600067ffffffffffffffff8211156200028e576200028d620003ab565b5b6200029982620003da565b9050602081019050919050565b6000620002b382620002ba565b9050919050565b600073ffffffffffffffffffffffffffffffffffffffff82169050919050565b60005b83811015620002fa578082015181840152602081019050620002dd565b838111156200030a576000848401525b50505050565b600060028204905060018216806200032957607f821691505b6020821081141562000340576200033f6200037c565b5b50919050565b6200035182620003da565b810181811067ffffffffffffffff82111715620003735762000372620003ab565b5b80604052505050565b7f4e487b7100000000000000000000000000000000000000000000000000000000600052602260045260246000fd5b7f4e487b7100000000000000000000000000000000000000000000000000000000600052604160045260246000fd5b6000601f19601f8301169050919050565b620003f681620002a6565b81146200040257600080fd5b50565b6109c880620004156000396000f3fe60806040526004361061006f5760003560e01c80636395fa271161004e5780636395fa27146100f3578063767800de1461011e5780637dc421a214610149578063e7c974a8146101865761006f565b8062c03ee61461007457806306fdde03146100b15780633ccfd60b146100dc575b600080fd5b34801561008057600080fd5b5061009b600480360381019061009691906105a7565b6101a2565b6040516100a891906106b3565b60405180910390f35b3480156100bd57600080fd5b506100c66101e1565b6040516100d391906106ce565b60405180910390f35b3480156100e857600080fd5b506100f161026f565b005b3480156100ff57600080fd5b50610108610439565b6040516101159190610770565b60405180910390f35b34801561012a57600080fd5b50610133610446565b60405161014091906106b3565b60405180910390f35b34801561015557600080fd5b50610170600480360381019061016b91906105a7565b61046c565b60405161017d91906106b3565b60405180910390f35b6101a0600480360381019061019b919061057e565b6104ab565b005b600081815481106101b257600080fd5b906000526020600020016000915054906101000a900473ffffffffffffffffffffffffffffffffffffffff1681565b600380546101ee90610828565b80601f016020809104026020016040519081016040528092919081815260200182805461021a90610828565b80156102675780601f1061023c57610100808354040283529160200191610267565b820191906000526020600020905b81548152906001019060200180831161024a57829003601f168201915b505050505081565b6000479050600260009054906101000a900473ffffffffffffffffffffffffffffffffffffffff1673ffffffffffffffffffffffffffffffffffffffff163373ffffffffffffffffffffffffffffffffffffffff1614610304576040517f08c379a00000000000000000000000000000000000000000000000000000000081526004016102fb90610710565b60405180910390fd5b600460009054906101000a900460ff1615610354576040517f08c379a000000000000000000000000000000000000000000000000000000000815260040161034b90610730565b60405180910390fd5b60008111610397576040517f08c379a000000000000000000000000000000000000000000000000000000000815260040161038e90610750565b60405180910390fd5b6001600460006101000a81548160ff021916908315150217905550600260009054906101000a900473ffffffffffffffffffffffffffffffffffffffff1673ffffffffffffffffffffffffffffffffffffffff166108fc829081150290604051600060405180830381858888f1935050505015801561041a573d6000803e3d6000fd5b506000600460006101000a81548160ff02191690831515021790555050565b6000600180549050905090565b600260009054906101000a900473ffffffffffffffffffffffffffffffffffffffff1681565b6001818154811061047c57600080fd5b906000526020600020016000915054906101000a900473ffffffffffffffffffffffffffffffffffffffff1681565b600034116104ee576040517f08c379a00000000000000000000000000000000000000000000000000000000081526004016104e5906106f0565b60405180910390fd5b6001819080600181540180825580915050600190039060005260206000200160009091909190916101000a81548173ffffffffffffffffffffffffffffffffffffffff021916908373ffffffffffffffffffffffffffffffffffffffff16021790555050565b60008135905061056381610964565b92915050565b6000813590506105788161097b565b92915050565b60006020828403121561059057600080fd5b600061059e84828501610554565b91505092915050565b6000602082840312156105b957600080fd5b60006105c784828501610569565b91505092915050565b6105d9816107a7565b82525050565b60006105ea8261078b565b6105f48185610796565b93506106048185602086016107f5565b61060d81610889565b840191505092915050565b6000610625601183610796565b91506106308261089a565b602082019050919050565b6000610648602783610796565b9150610653826108c3565b604082019050919050565b600061066b601783610796565b915061067682610912565b602082019050919050565b600061068e601383610796565b91506106998261093b565b602082019050919050565b6106ad816107eb565b82525050565b60006020820190506106c860008301846105d0565b92915050565b600060208201905081810360008301526106e881846105df565b905092915050565b6000602082019050818103600083015261070981610618565b9050919050565b600060208201905081810360008301526107298161063b565b9050919050565b600060208201905081810360008301526107498161065e565b9050919050565b6000602082019050818103600083015261076981610681565b9050919050565b600060208201905061078560008301846106a4565b92915050565b600081519050919050565b600082825260208201905092915050565b60006107b2826107cb565b9050919050565b60006107c4826107a7565b9050919050565b600073ffffffffffffffffffffffffffffffffffffffff82169050919050565b6000819050919050565b60005b838110156108135780820151818401526020810190506107f8565b83811115610822576000848401525b50505050565b6000600282049050600182168061084057607f821691505b602082108114156108545761085361085a565b5b50919050565b7f4e487b7100000000000000000000000000000000000000000000000000000000600052602260045260246000fd5b6000601f19601f8301169050919050565b7f6e6f207072697a65207265636569766564000000000000000000000000000000600082015250565b7f796f7520617265206e6f7420616c6c6f7720746f20776974686472617720746860008201527f652066756e647300000000000000000000000000000000000000000000000000602082015250565b7f5472616e73616374696e6720696e2070726f6772657373000000000000000000600082015250565b7f6e6f7468696e6720746f20776974686472617700000000000000000000000000600082015250565b61096d816107b9565b811461097857600080fd5b50565b610984816107eb565b811461098f57600080fd5b5056fea2646970667358221220dac8ae7e6308b4087111853d276d9262dcde456437faa987d8ece1993073147764736f6c63430008020033",
  "linkReferences": {},
  "deployedLinkReferences": {}
}