{
  "_format": "hh-sol-artifact-1",
  "contractName": "Game",
  "sourceName": "contracts/Casino.sol",
  "abi": [
    {
      "anonymous": false,
      "inputs": [
        {
          "indexed": false,
          "internalType": "contract Gambler",
          "name": "winner",
          "type": "address"
        }
      ],
      "name": "gameFinished",
      "type": "event"
    },
    {
      "inputs": [],
      "name": "bitAmount",
      "outputs": [
        {
          "internalType": "uint256",
          "name": "",
          "type": "uint256"
        }
      ],
      "stateMutability": "view",
      "type": "function"
    },
    {
      "inputs": [],
      "name": "finished",
      "outputs": [
        {
          "internalType": "bool",
          "name": "",
          "type": "bool"
        }
      ],
      "stateMutability": "view",
      "type": "function"
    },
    {
      "inputs": [],
      "name": "minAmount",
      "outputs": [
        {
          "internalType": "uint256",
          "name": "",
          "type": "uint256"
        }
      ],
      "stateMutability": "view",
      "type": "function"
    },
    {
      "inputs": [
        {
          "internalType": "contract Gambler",
          "name": "gambler",
          "type": "address"
        }
      ],
      "name": "play",
      "outputs": [],
      "stateMutability": "payable",
      "type": "function"
    },
    {
      "inputs": [],
      "name": "player1",
      "outputs": [
        {
          "internalType": "contract Gambler",
          "name": "",
          "type": "address"
        }
      ],
      "stateMutability": "view",
      "type": "function"
    },
    {
      "inputs": [],
      "name": "player2",
      "outputs": [
        {
          "internalType": "contract Gambler",
          "name": "",
          "type": "address"
        }
      ],
      "stateMutability": "view",
      "type": "function"
    },
    {
      "inputs": [
        {
          "internalType": "contract Gambler",
          "name": "gambler",
          "type": "address"
        }
      ],
      "name": "start",
      "outputs": [],
      "stateMutability": "payable",
      "type": "function"
    },
    {
      "inputs": [],
      "name": "winner",
      "outputs": [
        {
          "internalType": "contract Gambler",
          "name": "",
          "type": "address"
        }
      ],
      "stateMutability": "view",
      "type": "function"
    }
  ],
  "bytecode": "0x60806040526127106000556000600260006101000a81548160ff02191690831515021790555034801561003157600080fd5b50610d6a806100416000396000f3fe60806040526004361061007b5760003560e01c8063d30895e41161004e578063d30895e41461012c578063dd0b281e14610157578063dfbf53ae14610173578063e492814f1461019e5761007b565b806359a5f12d146100805780636b3039b7146100ab5780639b2cb5d8146100d6578063bef4876b14610101575b600080fd5b34801561008c57600080fd5b506100956101ba565b6040516100a291906109c7565b60405180910390f35b3480156100b757600080fd5b506100c06101e0565b6040516100cd9190610a9d565b60405180910390f35b3480156100e257600080fd5b506100eb6101e6565b6040516100f89190610a9d565b60405180910390f35b34801561010d57600080fd5b506101166101ec565b60405161012391906109ac565b60405180910390f35b34801561013857600080fd5b506101416101ff565b60405161014e91906109c7565b60405180910390f35b610171600480360381019061016c9190610855565b610225565b005b34801561017f57600080fd5b506101886102b5565b60405161019591906109c7565b60405180910390f35b6101b860048036038101906101b39190610855565b6102db565b005b600360009054906101000a900473ffffffffffffffffffffffffffffffffffffffff1681565b60015481565b60005481565b600260009054906101000a900460ff1681565b600260019054906101000a900473ffffffffffffffffffffffffffffffffffffffff1681565b60005434101561026a576040517f08c379a000000000000000000000000000000000000000000000000000000000815260040161026190610a5d565b60405180910390fd5b80600260016101000a81548173ffffffffffffffffffffffffffffffffffffffff021916908373ffffffffffffffffffffffffffffffffffffffff1602179055503460018190555050565b600460009054906101000a900473ffffffffffffffffffffffffffffffffffffffff1681565b600260009054906101000a900460ff161561032b576040517f08c379a000000000000000000000000000000000000000000000000000000000815260040161032290610a3d565b60405180910390fd5b600073ffffffffffffffffffffffffffffffffffffffff16600260019054906101000a900473ffffffffffffffffffffffffffffffffffffffff1673ffffffffffffffffffffffffffffffffffffffff1614156103bd576040517f08c379a00000000000000000000000000000000000000000000000000000000081526004016103b490610a7d565b60405180910390fd5b8073ffffffffffffffffffffffffffffffffffffffff1663767800de6040518163ffffffff1660e01b815260040160206040518083038186803b15801561040357600080fd5b505afa158015610417573d6000803e3d6000fd5b505050506040513d601f19601f8201168201806040525081019061043b919061082c565b73ffffffffffffffffffffffffffffffffffffffff16600260019054906101000a900473ffffffffffffffffffffffffffffffffffffffff1673ffffffffffffffffffffffffffffffffffffffff1663767800de6040518163ffffffff1660e01b815260040160206040518083038186803b1580156104b957600080fd5b505afa1580156104cd573d6000803e3d6000fd5b505050506040513d601f19601f820116820180604052508101906104f1919061082c565b73ffffffffffffffffffffffffffffffffffffffff161415610548576040517f08c379a000000000000000000000000000000000000000000000000000000000815260040161053f906109fd565b60405180910390fd5b600154341461058c576040517f08c379a000000000000000000000000000000000000000000000000000000000815260040161058390610a1d565b60405180910390fd5b6001600260006101000a81548160ff02191690831515021790555080600360006101000a81548173ffffffffffffffffffffffffffffffffffffffff021916908373ffffffffffffffffffffffffffffffffffffffff160217905550600060026105f46107c3565b6105fe9190610bb3565b905060008160ff16141561067457600360009054906101000a900473ffffffffffffffffffffffffffffffffffffffff16600460006101000a81548173ffffffffffffffffffffffffffffffffffffffff021916908373ffffffffffffffffffffffffffffffffffffffff1602179055506106d8565b600260019054906101000a900473ffffffffffffffffffffffffffffffffffffffff16600460006101000a81548173ffffffffffffffffffffffffffffffffffffffff021916908373ffffffffffffffffffffffffffffffffffffffff1602179055505b600460009054906101000a900473ffffffffffffffffffffffffffffffffffffffff1673ffffffffffffffffffffffffffffffffffffffff1663e7c974a847306040518363ffffffff1660e01b815260040161073491906109e2565b6000604051808303818588803b15801561074d57600080fd5b505af1158015610761573d6000803e3d6000fd5b50505050507f81e97563510fc38d40a27c898055562062927ad214b195ca16800560a5884875600460009054906101000a900473ffffffffffffffffffffffffffffffffffffffff166040516107b791906109c7565b60405180910390a15050565b600060fb42446040516020016107da929190610980565b6040516020818303038152906040528051906020012060001c6107fd9190610b82565b905090565b60008151905061081181610d06565b92915050565b60008135905061082681610d1d565b92915050565b60006020828403121561083e57600080fd5b600061084c84828501610802565b91505092915050565b60006020828403121561086757600080fd5b600061087584828501610817565b91505092915050565b61088781610adb565b82525050565b61089681610b30565b82525050565b6108a581610b54565b82525050565b60006108b8601a83610ab8565b91506108c382610c13565b602082019050919050565b60006108db601f83610ab8565b91506108e682610c3c565b602082019050919050565b60006108fe601083610ab8565b915061090982610c65565b602082019050919050565b6000610921602c83610ab8565b915061092c82610c8e565b604082019050919050565b6000610944601283610ab8565b915061094f82610cdd565b602082019050919050565b61096381610b19565b82525050565b61097a61097582610b19565b610b78565b82525050565b600061098c8285610969565b60208201915061099c8284610969565b6020820191508190509392505050565b60006020820190506109c1600083018461087e565b92915050565b60006020820190506109dc600083018461088d565b92915050565b60006020820190506109f7600083018461089c565b92915050565b60006020820190508181036000830152610a16816108ab565b9050919050565b60006020820190508181036000830152610a36816108ce565b9050919050565b60006020820190508181036000830152610a56816108f1565b9050919050565b60006020820190508181036000830152610a7681610914565b9050919050565b60006020820190508181036000830152610a9681610937565b9050919050565b6000602082019050610ab2600083018461095a565b92915050565b600082825260208201905092915050565b6000610ad482610af9565b9050919050565b60008115159050919050565b6000610af282610ac9565b9050919050565b600073ffffffffffffffffffffffffffffffffffffffff82169050919050565b6000819050919050565b600060ff82169050919050565b6000610b3b82610b42565b9050919050565b6000610b4d82610af9565b9050919050565b6000610b5f82610b66565b9050919050565b6000610b7182610af9565b9050919050565b6000819050919050565b6000610b8d82610b19565b9150610b9883610b19565b925082610ba857610ba7610be4565b5b828206905092915050565b6000610bbe82610b23565b9150610bc983610b23565b925082610bd957610bd8610be4565b5b828206905092915050565b7f4e487b7100000000000000000000000000000000000000000000000000000000600052601260045260246000fd5b7f506c6179657220616c726561647920696e207468652067616d65000000000000600082015250565b7f596f75206861766520746f2073656e64207468652062697420616d6f756e7400600082015250565b7f47616d652069732066696e697368656400000000000000000000000000000000600082015250565b7f596f75206861766520746f20626574206d6f7265207468616e20746865206d6960008201527f6e696d756d20616d6f756e740000000000000000000000000000000000000000602082015250565b7f53746172746572206973206e6f74207365740000000000000000000000000000600082015250565b610d0f81610ac9565b8114610d1a57600080fd5b50565b610d2681610ae7565b8114610d3157600080fd5b5056fea264697066735822122065b1c0e22684b0c7554f3a81328ea2a4ebb2127f35d162336b8f51b43999b94a64736f6c63430008020033",
  "linkReferences": {},
  "deployedLinkReferences": {}
}