{
  "_format": "hh-sol-artifact-1",
  "contractName": "Casino",
  "sourceName": "contracts/Casino.sol",
  "abi": [
    {
      "anonymous": false,
      "inputs": [
        {
          "indexed": false,
          "internalType": "contract Gambler",
          "name": "gambler",
          "type": "address"
        }
      ],
      "name": "gamblerRegistered",
      "type": "event"
    },
    {
      "anonymous": false,
      "inputs": [
        {
          "indexed": false,
          "internalType": "contract Game",
          "name": "game",
          "type": "address"
        }
      ],
      "name": "newGame",
      "type": "event"
    },
    {
      "inputs": [
        {
          "internalType": "contract Gambler",
          "name": "gambler",
          "type": "address"
        }
      ],
      "name": "createGame",
      "outputs": [],
      "stateMutability": "payable",
      "type": "function"
    },
    {
      "inputs": [
        {
          "internalType": "address",
          "name": "",
          "type": "address"
        }
      ],
      "name": "gamblers",
      "outputs": [
        {
          "internalType": "contract Gambler",
          "name": "",
          "type": "address"
        }
      ],
      "stateMutability": "view",
      "type": "function"
    },
    {
      "inputs": [
        {
          "internalType": "uint256",
          "name": "",
          "type": "uint256"
        }
      ],
      "name": "gamblersRegistered",
      "outputs": [
        {
          "internalType": "contract Gambler",
          "name": "",
          "type": "address"
        }
      ],
      "stateMutability": "view",
      "type": "function"
    },
    {
      "inputs": [
        {
          "internalType": "uint256",
          "name": "",
          "type": "uint256"
        }
      ],
      "name": "games",
      "outputs": [
        {
          "internalType": "contract Game",
          "name": "",
          "type": "address"
        }
      ],
      "stateMutability": "view",
      "type": "function"
    },
    {
      "inputs": [
        {
          "internalType": "address",
          "name": "gamblerAddress",
          "type": "address"
        }
      ],
      "name": "getGambler",
      "outputs": [
        {
          "internalType": "contract Gambler",
          "name": "",
          "type": "address"
        }
      ],
      "stateMutability": "view",
      "type": "function"
    },
    {
      "inputs": [],
      "name": "getGamblers",
      "outputs": [
        {
          "internalType": "contract Gambler[]",
          "name": "",
          "type": "address[]"
        }
      ],
      "stateMutability": "view",
      "type": "function"
    },
    {
      "inputs": [],
      "name": "getGameCount",
      "outputs": [
        {
          "internalType": "uint256",
          "name": "",
          "type": "uint256"
        }
      ],
      "stateMutability": "view",
      "type": "function"
    },
    {
      "inputs": [],
      "name": "getGames",
      "outputs": [
        {
          "internalType": "contract Game[]",
          "name": "",
          "type": "address[]"
        }
      ],
      "stateMutability": "view",
      "type": "function"
    },
    {
      "inputs": [
        {
          "internalType": "string",
          "name": "name",
          "type": "string"
        }
      ],
      "name": "registerGambler",
      "outputs": [],
      "stateMutability": "nonpayable",
      "type": "function"
    }
  ],
  "bytecode": "0x608060405234801561001057600080fd5b506119e8806100206000396000f3fe6080604052600436106100965760003560e01c8063474d0b5a11610069578063c04c59471161004e578063c04c594714610189578063d471486e1461019e578063e87c0ee6146101be57610096565b8063474d0b5a1461013e5780635c3539231461015357610096565b806309eeebb01461009b578063117a5b90146100c65780631f9340f8146100fe5780633934a8081461011e575b600080fd5b3480156100a757600080fd5b506100b06101dc565b6040516100bd9190610753565b60405180910390f35b3480156100d257600080fd5b506100e66100e13660046106d7565b61023e565b6040516001600160a01b0390911681526020016100bd565b34801561010a57600080fd5b506100e66101193660046106d7565b610268565b34801561012a57600080fd5b506100e661013936600461060a565b610278565b61015161014c36600461060a565b610313565b005b34801561015f57600080fd5b506100e661016e36600461060a565b6002602052600090815260409020546001600160a01b031681565b34801561019557600080fd5b506100b061044e565b3480156101aa57600080fd5b506101516101b936600461062d565b6104ae565b3480156101ca57600080fd5b506000546040519081526020016100bd565b6060600180548060200260200160405190810160405280929190818152602001828054801561023457602002820191906000526020600020905b81546001600160a01b03168152600190910190602001808311610216575b5050505050905090565b6000818154811061024e57600080fd5b6000918252602090912001546001600160a01b0316905081565b6001818154811061024e57600080fd5b6001600160a01b038082166000908152600260205260408120549091168061030d5760405162461bcd60e51b815260206004820152602e60248201527f47616d626c6572206e6f7420666f756e642e20506c6561736520636f6e73696460448201527f6572207265676973746572696e6700000000000000000000000000000000000060648201526084015b60405180910390fd5b92915050565b6000604051610321906105ee565b604051809103906000f08015801561033d573d6000803e3d6000fd5b506040517fdd0b281e0000000000000000000000000000000000000000000000000000000081526001600160a01b0384811660048301529192509082169063dd0b281e9034906024016000604051808303818588803b15801561039f57600080fd5b505af11580156103b3573d6000803e3d6000fd5b5050600080546001810182559080527f290decd9548b62a8d60345a988386fc84ba6bc95484008f6362f93160ef3e56301805473ffffffffffffffffffffffffffffffffffffffff19166001600160a01b0386169081179091556040519081527fc2e0b1e6e837332213858efe04fb920ca173dd36abb6951b9205d688cc04a682935060200191506104429050565b60405180910390a15050565b60606000805480602002602001604051908101604052809291908181526020018280548015610234576020028201919060005260206000209081546001600160a01b03168152600190910190602001808311610216575050505050905090565b336000908152600260205260409020546001600160a01b0316156105145760405162461bcd60e51b815260206004820152601a60248201527f47616d626c657220616c726561647920726567697374657265640000000000006044820152606401610304565b60003382604051610524906105fc565b61052f9291906106ef565b604051809103906000f08015801561054b573d6000803e3d6000fd5b50600180548082019091557fb10e2d527612073b26eecdfd717e6a320cf44b4afac2b0732d9fcbe2b7fa0cf60180546001600160a01b03831673ffffffffffffffffffffffffffffffffffffffff1991821681179092553360009081526002602090815260409182902080549093168417909255519182529192507f25115785f0ac282478739bdaadd17966a61927fe79ba0bc5742c3f7518c4f25c9101610442565b61079480620007e883390190565b610a378062000f7c83390190565b60006020828403121561061b578081fd5b8135610626816107cf565b9392505050565b60006020828403121561063e578081fd5b813567ffffffffffffffff80821115610655578283fd5b818401915084601f830112610668578283fd5b81358181111561067a5761067a6107a0565b604051601f8201601f19908116603f011681019083821181831017156106a2576106a26107a0565b816040528281528760208487010111156106ba578586fd5b826020860160208301379182016020019490945295945050505050565b6000602082840312156106e8578081fd5b5035919050565b60006001600160a01b038416825260206040818401528351806040850152825b8181101561072b5785810183015185820160600152820161070f565b8181111561073c5783606083870101525b50601f01601f191692909201606001949350505050565b6020808252825182820181905260009190848201906040850190845b818110156107945783516001600160a01b03168352928401929184019160010161076f565b50909695505050505050565b7f4e487b7100000000000000000000000000000000000000000000000000000000600052604160045260246000fd5b6001600160a01b03811681146107e457600080fd5b5056fe60806040526127106000556002805460ff1916905534801561002057600080fd5b50610764806100306000396000f3fe60806040526004361061007b5760003560e01c8063d30895e41161004e578063d30895e414610121578063dd0b281e14610146578063dfbf53ae1461015b578063e492814f1461017b5761007b565b806359a5f12d146100805780639b2cb5d8146100bd578063bef4876b146100e1578063d24257c01461010b575b600080fd5b34801561008c57600080fd5b506003546100a0906001600160a01b031681565b6040516001600160a01b0390911681526020015b60405180910390f35b3480156100c957600080fd5b506100d360005481565b6040519081526020016100b4565b3480156100ed57600080fd5b506002546100fb9060ff1681565b60405190151581526020016100b4565b34801561011757600080fd5b506100d360015481565b34801561012d57600080fd5b506002546100a09061010090046001600160a01b031681565b610159610154366004610695565b61018e565b005b34801561016757600080fd5b506004546100a0906001600160a01b031681565b610159610189366004610695565b61024e565b60005434101561020b5760405162461bcd60e51b815260206004820152602c60248201527f596f75206861766520746f20626574206d6f7265207468616e20746865206d6960448201527f6e696d756d20616d6f756e74000000000000000000000000000000000000000060648201526084015b60405180910390fd5b600280546001600160a01b03909216610100027fffffffffffffffffffffff0000000000000000000000000000000000000000ff90921691909117905534600155565b60025460ff16156102a15760405162461bcd60e51b815260206004820152601060248201527f47616d652069732066696e6973686564000000000000000000000000000000006044820152606401610202565b60025461010090046001600160a01b03166102fe5760405162461bcd60e51b815260206004820152601260248201527f53746172746572206973206e6f742073657400000000000000000000000000006044820152606401610202565b806001600160a01b031663767800de6040518163ffffffff1660e01b815260040160206040518083038186803b15801561033757600080fd5b505afa15801561034b573d6000803e3d6000fd5b505050506040513d601f19601f8201168201806040525081019061036f9190610672565b6001600160a01b0316600260019054906101000a90046001600160a01b03166001600160a01b031663767800de6040518163ffffffff1660e01b815260040160206040518083038186803b1580156103c657600080fd5b505afa1580156103da573d6000803e3d6000fd5b505050506040513d601f19601f820116820180604052508101906103fe9190610672565b6001600160a01b031614156104555760405162461bcd60e51b815260206004820152601a60248201527f506c6179657220616c726561647920696e207468652067616d650000000000006044820152606401610202565b60015434146104a65760405162461bcd60e51b815260206004820152601f60248201527f596f75206861766520746f2073656e64207468652062657420616d6f756e74006044820152606401610202565b6002805460ff19166001178155600380546001600160a01b03841673ffffffffffffffffffffffffffffffffffffffff199091161790556000906104e861062a565b6104f291906106c5565b905060ff8116610530576003546004805473ffffffffffffffffffffffffffffffffffffffff19166001600160a01b03909216919091179055610566565b600254600480546101009092046001600160a01b031673ffffffffffffffffffffffffffffffffffffffff199092169190911790555b600480546040517fe7c974a800000000000000000000000000000000000000000000000000000000815230928101929092526001600160a01b03169063e7c974a89047906024016000604051808303818588803b1580156105c657600080fd5b505af11580156105da573d6000803e3d6000fd5b50506004546040516001600160a01b0390911681527f81e97563510fc38d40a27c898055562062927ad214b195ca16800560a58848759350602001915061061e9050565b60405180910390a15050565b600060fb424460405160200161064a929190918252602082015260400190565b6040516020818303038152906040528051906020012060001c61066d91906106b1565b905090565b600060208284031215610683578081fd5b815161068e81610716565b9392505050565b6000602082840312156106a6578081fd5b813561068e81610716565b6000826106c0576106c06106e7565b500690565b600060ff8316806106d8576106d86106e7565b8060ff84160691505092915050565b7f4e487b7100000000000000000000000000000000000000000000000000000000600052601260045260246000fd5b6001600160a01b038116811461072b57600080fd5b5056fea26469706673582212208b22ac388e99aff9782b1fbac6bd129bed18ba07838d0b6bebd029df2e6bb1d764736f6c63430008030033608060405260006002556005805460ff191690553480156200002057600080fd5b5060405162000a3738038062000a37833981016040819052620000439162000122565b600380546001600160a01b0319166001600160a01b0384161790558051620000739060049060208401906200007c565b5050506200026e565b8280546200008a906200021b565b90600052602060002090601f016020900481019282620000ae5760008555620000f9565b82601f10620000c957805160ff1916838001178555620000f9565b82800160010185558215620000f9579182015b82811115620000f9578251825591602001919060010190620000dc565b50620001079291506200010b565b5090565b5b808211156200010757600081556001016200010c565b6000806040838503121562000135578182fd5b82516001600160a01b03811681146200014c578283fd5b602084810151919350906001600160401b03808211156200016b578384fd5b818601915086601f8301126200017f578384fd5b81518181111562000194576200019462000258565b604051601f8201601f19908116603f01168101908382118183101715620001bf57620001bf62000258565b816040528281528986848701011115620001d7578687fd5b8693505b82841015620001fa5784840186015181850187015292850192620001db565b828411156200020b57868684830101525b8096505050505050509250929050565b600181811c908216806200023057607f821691505b602082108114156200025257634e487b7160e01b600052602260045260246000fd5b50919050565b634e487b7160e01b600052604160045260246000fd5b6107b9806200027e6000396000f3fe6080604052600436106100bb5760003560e01c80636aee3fb1116100745780639b36057c1161004e5780639b36057c146101d1578063c04c594714610248578063e7c974a81461025d576100bb565b80636aee3fb11461016f578063767800de146101915780637dc421a2146101b1576100bb565b806328102e54116100a557806328102e541461011f5780633ccfd60b146101435780636395fa271461015a576100bb565b8062c03ee6146100c057806306fdde03146100fd575b600080fd5b3480156100cc57600080fd5b506100e06100db36600461066c565b610270565b6040516001600160a01b0390911681526020015b60405180910390f35b34801561010957600080fd5b5061011261029a565b6040516100f491906106d1565b34801561012b57600080fd5b5061013560025481565b6040519081526020016100f4565b34801561014f57600080fd5b50610158610328565b005b34801561016657600080fd5b50600154610135565b34801561017b57600080fd5b506101846104a7565b6040516100f49190610684565b34801561019d57600080fd5b506003546100e0906001600160a01b031681565b3480156101bd57600080fd5b506100e06101cc36600461066c565b610509565b3480156101dd57600080fd5b506101586101ec36600461063e565b600080546001810182559080527f290decd9548b62a8d60345a988386fc84ba6bc95484008f6362f93160ef3e56301805473ffffffffffffffffffffffffffffffffffffffff19166001600160a01b0392909216919091179055565b34801561025457600080fd5b50610184610519565b61015861026b36600461063e565b610579565b6000818154811061028057600080fd5b6000918252602090912001546001600160a01b0316905081565b600480546102a790610748565b80601f01602080910402602001604051908101604052809291908181526020018280546102d390610748565b80156103205780601f106102f557610100808354040283529160200191610320565b820191906000526020600020905b81548152906001019060200180831161030357829003601f168201915b505050505081565b60035447906001600160a01b031633146103af5760405162461bcd60e51b815260206004820152602760248201527f796f7520617265206e6f7420616c6c6f7720746f20776974686472617720746860448201527f652066756e64730000000000000000000000000000000000000000000000000060648201526084015b60405180910390fd5b60055460ff16156104025760405162461bcd60e51b815260206004820152601760248201527f5472616e73616374696e6720696e2070726f677265737300000000000000000060448201526064016103a6565b600081116104525760405162461bcd60e51b815260206004820152601360248201527f6e6f7468696e6720746f2077697468647261770000000000000000000000000060448201526064016103a6565b6005805460ff191660011790556003546040516001600160a01b039091169082156108fc029083906000818181858888f19350505050158015610499573d6000803e3d6000fd5b50506005805460ff19169055565b606060018054806020026020016040519081016040528092919081815260200182805480156104ff57602002820191906000526020600020905b81546001600160a01b031681526001909101906020018083116104e1575b5050505050905090565b6001818154811061028057600080fd5b606060008054806020026020016040519081016040528092919081815260200182805480156104ff576020028201919060005260206000209081546001600160a01b031681526001909101906020018083116104e1575050505050905090565b600034116105c95760405162461bcd60e51b815260206004820152601160248201527f6e6f207072697a6520726563656976656400000000000000000000000000000060448201526064016103a6565b34600260008282546105db9190610724565b90915550506001805480820182556000919091527fb10e2d527612073b26eecdfd717e6a320cf44b4afac2b0732d9fcbe2b7fa0cf601805473ffffffffffffffffffffffffffffffffffffffff19166001600160a01b0392909216919091179055565b60006020828403121561064f578081fd5b81356001600160a01b0381168114610665578182fd5b9392505050565b60006020828403121561067d578081fd5b5035919050565b6020808252825182820181905260009190848201906040850190845b818110156106c55783516001600160a01b0316835292840192918401916001016106a0565b50909695505050505050565b6000602080835283518082850152825b818110156106fd578581018301518582016040015282016106e1565b8181111561070e5783604083870101525b50601f01601f1916929092016040019392505050565b6000821982111561074357634e487b7160e01b81526011600452602481fd5b500190565b600181811c9082168061075c57607f821691505b6020821081141561077d57634e487b7160e01b600052602260045260246000fd5b5091905056fea2646970667358221220894048a3f1d9a3c139979bd1dc56fbde24e7772023210666e9fd84d37801f5d264736f6c63430008030033a264697066735822122010e6bd71a7d05771ccbeb70ee76f525160ef5bdb03dfe502ca096d47c933212e64736f6c63430008030033",
  "linkReferences": {},
  "deployedLinkReferences": {}
}