{
  "_format": "hh-sol-artifact-1",
  "contractName": "Gambler",
  "sourceName": "contracts/Casino.sol",
  "abi": [
    {
      "inputs": [
        {
          "internalType": "address",
          "name": "gamblerAddress",
          "type": "address"
        },
        {
          "internalType": "string",
          "name": "gamblerName",
          "type": "string"
        }
      ],
      "stateMutability": "nonpayable",
      "type": "constructor"
    },
    {
      "inputs": [],
      "name": "addr",
      "outputs": [
        {
          "internalType": "address",
          "name": "",
          "type": "address"
        }
      ],
      "stateMutability": "view",
      "type": "function"
    },
    {
      "inputs": [],
      "name": "amountWon",
      "outputs": [
        {
          "internalType": "uint256",
          "name": "",
          "type": "uint256"
        }
      ],
      "stateMutability": "view",
      "type": "function"
    },
    {
      "inputs": [
        {
          "internalType": "uint256",
          "name": "",
          "type": "uint256"
        }
      ],
      "name": "gamblerGames",
      "outputs": [
        {
          "internalType": "contract Game",
          "name": "",
          "type": "address"
        }
      ],
      "stateMutability": "view",
      "type": "function"
    },
    {
      "inputs": [
        {
          "internalType": "uint256",
          "name": "",
          "type": "uint256"
        }
      ],
      "name": "gamesWon",
      "outputs": [
        {
          "internalType": "contract Game",
          "name": "",
          "type": "address"
        }
      ],
      "stateMutability": "view",
      "type": "function"
    },
    {
      "inputs": [],
      "name": "getGames",
      "outputs": [
        {
          "internalType": "contract Game[]",
          "name": "",
          "type": "address[]"
        }
      ],
      "stateMutability": "view",
      "type": "function"
    },
    {
      "inputs": [],
      "name": "getGamesWon",
      "outputs": [
        {
          "internalType": "contract Game[]",
          "name": "",
          "type": "address[]"
        }
      ],
      "stateMutability": "view",
      "type": "function"
    },
    {
      "inputs": [],
      "name": "name",
      "outputs": [
        {
          "internalType": "string",
          "name": "",
          "type": "string"
        }
      ],
      "stateMutability": "view",
      "type": "function"
    },
    {
      "inputs": [],
      "name": "numGamesWon",
      "outputs": [
        {
          "internalType": "uint256",
          "name": "",
          "type": "uint256"
        }
      ],
      "stateMutability": "view",
      "type": "function"
    },
    {
      "inputs": [
        {
          "internalType": "contract Game",
          "name": "gameWon",
          "type": "address"
        }
      ],
      "name": "receivePrize",
      "outputs": [],
      "stateMutability": "payable",
      "type": "function"
    },
    {
      "inputs": [
        {
          "internalType": "contract Game",
          "name": "game",
          "type": "address"
        }
      ],
      "name": "registerGame",
      "outputs": [],
      "stateMutability": "nonpayable",
      "type": "function"
    },
    {
      "inputs": [],
      "name": "withdraw",
      "outputs": [],
      "stateMutability": "nonpayable",
      "type": "function"
    }
  ],
  "bytecode": "0x608060405260006002556005805460ff191690553480156200002057600080fd5b5060405162000a3738038062000a37833981016040819052620000439162000122565b600380546001600160a01b0319166001600160a01b0384161790558051620000739060049060208401906200007c565b5050506200026e565b8280546200008a906200021b565b90600052602060002090601f016020900481019282620000ae5760008555620000f9565b82601f10620000c957805160ff1916838001178555620000f9565b82800160010185558215620000f9579182015b82811115620000f9578251825591602001919060010190620000dc565b50620001079291506200010b565b5090565b5b808211156200010757600081556001016200010c565b6000806040838503121562000135578182fd5b82516001600160a01b03811681146200014c578283fd5b602084810151919350906001600160401b03808211156200016b578384fd5b818601915086601f8301126200017f578384fd5b81518181111562000194576200019462000258565b604051601f8201601f19908116603f01168101908382118183101715620001bf57620001bf62000258565b816040528281528986848701011115620001d7578687fd5b8693505b82841015620001fa5784840186015181850187015292850192620001db565b828411156200020b57868684830101525b8096505050505050509250929050565b600181811c908216806200023057607f821691505b602082108114156200025257634e487b7160e01b600052602260045260246000fd5b50919050565b634e487b7160e01b600052604160045260246000fd5b6107b9806200027e6000396000f3fe6080604052600436106100bb5760003560e01c80636aee3fb1116100745780639b36057c1161004e5780639b36057c146101d1578063c04c594714610248578063e7c974a81461025d576100bb565b80636aee3fb11461016f578063767800de146101915780637dc421a2146101b1576100bb565b806328102e54116100a557806328102e541461011f5780633ccfd60b146101435780636395fa271461015a576100bb565b8062c03ee6146100c057806306fdde03146100fd575b600080fd5b3480156100cc57600080fd5b506100e06100db36600461066c565b610270565b6040516001600160a01b0390911681526020015b60405180910390f35b34801561010957600080fd5b5061011261029a565b6040516100f491906106d1565b34801561012b57600080fd5b5061013560025481565b6040519081526020016100f4565b34801561014f57600080fd5b50610158610328565b005b34801561016657600080fd5b50600154610135565b34801561017b57600080fd5b506101846104a7565b6040516100f49190610684565b34801561019d57600080fd5b506003546100e0906001600160a01b031681565b3480156101bd57600080fd5b506100e06101cc36600461066c565b610509565b3480156101dd57600080fd5b506101586101ec36600461063e565b600080546001810182559080527f290decd9548b62a8d60345a988386fc84ba6bc95484008f6362f93160ef3e56301805473ffffffffffffffffffffffffffffffffffffffff19166001600160a01b0392909216919091179055565b34801561025457600080fd5b50610184610519565b61015861026b36600461063e565b610579565b6000818154811061028057600080fd5b6000918252602090912001546001600160a01b0316905081565b600480546102a790610748565b80601f01602080910402602001604051908101604052809291908181526020018280546102d390610748565b80156103205780601f106102f557610100808354040283529160200191610320565b820191906000526020600020905b81548152906001019060200180831161030357829003601f168201915b505050505081565b60035447906001600160a01b031633146103af5760405162461bcd60e51b815260206004820152602760248201527f796f7520617265206e6f7420616c6c6f7720746f20776974686472617720746860448201527f652066756e64730000000000000000000000000000000000000000000000000060648201526084015b60405180910390fd5b60055460ff16156104025760405162461bcd60e51b815260206004820152601760248201527f5472616e73616374696e6720696e2070726f677265737300000000000000000060448201526064016103a6565b600081116104525760405162461bcd60e51b815260206004820152601360248201527f6e6f7468696e6720746f2077697468647261770000000000000000000000000060448201526064016103a6565b6005805460ff191660011790556003546040516001600160a01b039091169082156108fc029083906000818181858888f19350505050158015610499573d6000803e3d6000fd5b50506005805460ff19169055565b606060018054806020026020016040519081016040528092919081815260200182805480156104ff57602002820191906000526020600020905b81546001600160a01b031681526001909101906020018083116104e1575b5050505050905090565b6001818154811061028057600080fd5b606060008054806020026020016040519081016040528092919081815260200182805480156104ff576020028201919060005260206000209081546001600160a01b031681526001909101906020018083116104e1575050505050905090565b600034116105c95760405162461bcd60e51b815260206004820152601160248201527f6e6f207072697a6520726563656976656400000000000000000000000000000060448201526064016103a6565b34600260008282546105db9190610724565b90915550506001805480820182556000919091527fb10e2d527612073b26eecdfd717e6a320cf44b4afac2b0732d9fcbe2b7fa0cf601805473ffffffffffffffffffffffffffffffffffffffff19166001600160a01b0392909216919091179055565b60006020828403121561064f578081fd5b81356001600160a01b0381168114610665578182fd5b9392505050565b60006020828403121561067d578081fd5b5035919050565b6020808252825182820181905260009190848201906040850190845b818110156106c55783516001600160a01b0316835292840192918401916001016106a0565b50909695505050505050565b6000602080835283518082850152825b818110156106fd578581018301518582016040015282016106e1565b8181111561070e5783604083870101525b50601f01601f1916929092016040019392505050565b6000821982111561074357634e487b7160e01b81526011600452602481fd5b500190565b600181811c9082168061075c57607f821691505b6020821081141561077d57634e487b7160e01b600052602260045260246000fd5b5091905056fea2646970667358221220894048a3f1d9a3c139979bd1dc56fbde24e7772023210666e9fd84d37801f5d264736f6c63430008030033",
  "linkReferences": {},
  "deployedLinkReferences": {}
}