{
  "_format": "hh-sol-artifact-1",
  "contractName": "FlipCoinGame",
  "sourceName": "contracts/Tournament.sol",
  "abi": [
    {
      "inputs": [
        {
          "internalType": "uint256",
          "name": "minimun",
          "type": "uint256"
        }
      ],
      "stateMutability": "nonpayable",
      "type": "constructor"
    },
    {
      "inputs": [],
      "name": "amount",
      "outputs": [
        {
          "internalType": "uint256",
          "name": "",
          "type": "uint256"
        }
      ],
      "stateMutability": "view",
      "type": "function"
    },
    {
      "inputs": [],
      "name": "finished",
      "outputs": [
        {
          "internalType": "bool",
          "name": "",
          "type": "bool"
        }
      ],
      "stateMutability": "view",
      "type": "function"
    },
    {
      "inputs": [],
      "name": "minAmount",
      "outputs": [
        {
          "internalType": "uint256",
          "name": "",
          "type": "uint256"
        }
      ],
      "stateMutability": "view",
      "type": "function"
    },
    {
      "inputs": [],
      "name": "play",
      "outputs": [
        {
          "internalType": "address",
          "name": "",
          "type": "address"
        }
      ],
      "stateMutability": "payable",
      "type": "function"
    },
    {
      "inputs": [],
      "name": "start",
      "outputs": [],
      "stateMutability": "payable",
      "type": "function"
    },
    {
      "inputs": [],
      "name": "starter",
      "outputs": [
        {
          "internalType": "address",
          "name": "",
          "type": "address"
        }
      ],
      "stateMutability": "view",
      "type": "function"
    },
    {
      "inputs": [],
      "name": "winner",
      "outputs": [
        {
          "internalType": "address",
          "name": "",
          "type": "address"
        }
      ],
      "stateMutability": "view",
      "type": "function"
    },
    {
      "inputs": [],
      "name": "withdraw",
      "outputs": [],
      "stateMutability": "nonpayable",
      "type": "function"
    },
    {
      "inputs": [],
      "name": "withdrew",
      "outputs": [
        {
          "internalType": "bool",
          "name": "",
          "type": "bool"
        }
      ],
      "stateMutability": "view",
      "type": "function"
    }
  ],
  "bytecode": "0x608060405260008060006101000a81548160ff02191690831515021790555060008060016101000a81548160ff02191690831515021790555034801561004457600080fd5b50604051610b0c380380610b0c8339818101604052602081101561006757600080fd5b81019080805190602001909291905050508060028190555050610a7d8061008f6000396000f3fe6080604052600436106100865760003560e01c8063be9a655511610059578063be9a65551461012c578063bef4876b14610136578063dfbf53ae14610163578063ec8f850b146101a4578063f5a8492f146101d157610086565b80633ccfd60b1461008b57806393e84cd9146100a25780639b2cb5d8146100d6578063aa8c217c14610101575b600080fd5b34801561009757600080fd5b506100a0610212565b005b6100aa6103c2565b604051808273ffffffffffffffffffffffffffffffffffffffff16815260200191505060405180910390f35b3480156100e257600080fd5b506100eb610772565b6040518082815260200191505060405180910390f35b34801561010d57600080fd5b50610116610778565b6040518082815260200191505060405180910390f35b61013461077e565b005b34801561014257600080fd5b5061014b610968565b60405180821515815260200191505060405180910390f35b34801561016f57600080fd5b50610178610979565b604051808273ffffffffffffffffffffffffffffffffffffffff16815260200191505060405180910390f35b3480156101b057600080fd5b506101b961099f565b60405180821515815260200191505060405180910390f35b3480156101dd57600080fd5b506101e66109b2565b604051808273ffffffffffffffffffffffffffffffffffffffff16815260200191505060405180910390f35b600160009054906101000a900473ffffffffffffffffffffffffffffffffffffffff1673ffffffffffffffffffffffffffffffffffffffff163373ffffffffffffffffffffffffffffffffffffffff16146102d5576040517f08c379a00000000000000000000000000000000000000000000000000000000081526004018080602001828103825260168152602001807f596f7520617265206e6f74207468652077696e6e65720000000000000000000081525060200191505060405180910390fd5b60001515600060019054906101000a900460ff1615151461035e576040517f08c379a00000000000000000000000000000000000000000000000000000000081526004018080602001828103825260148152602001807f466f756e6473207765726520776974686472617700000000000000000000000081525060200191505060405180910390fd5b6001600060016101000a81548160ff0219169083151502179055503373ffffffffffffffffffffffffffffffffffffffff166108fc479081150290604051600060405180830381858888f193505050501580156103bf573d6000803e3d6000fd5b50565b60008060009054906101000a900460ff1615610446576040517f08c379a00000000000000000000000000000000000000000000000000000000081526004018080602001828103825260108152602001807f47616d652069732066696e69736865640000000000000000000000000000000081525060200191505060405180910390fd5b6002543410156104a1576040517f08c379a000000000000000000000000000000000000000000000000000000000815260040180806020018281038252602c815260200180610a1c602c913960400191505060405180910390fd5b600073ffffffffffffffffffffffffffffffffffffffff16600060029054906101000a900473ffffffffffffffffffffffffffffffffffffffff1673ffffffffffffffffffffffffffffffffffffffff161415610566576040517f08c379a00000000000000000000000000000000000000000000000000000000081526004018080602001828103825260128152602001807f53746172746572206973206e6f7420736574000000000000000000000000000081525060200191505060405180910390fd5b3373ffffffffffffffffffffffffffffffffffffffff16600060029054906101000a900473ffffffffffffffffffffffffffffffffffffffff1673ffffffffffffffffffffffffffffffffffffffff16141561062a576040517f08c379a000000000000000000000000000000000000000000000000000000000815260040180806020018281038252601a8152602001807f506c6179657220616c726561647920696e207468652067616d6500000000000081525060200191505060405180910390fd5b60035434146106a1576040517f08c379a000000000000000000000000000000000000000000000000000000000815260040180806020018281038252601c8152602001807f596f752061726520657863656564696e672074686520616d6f756e740000000081525060200191505060405180910390fd5b600060026106ad6109d8565b60ff16816106b757fe5b06905060008160ff16146106ed57600060029054906101000a900473ffffffffffffffffffffffffffffffffffffffff166106ef565b335b600160006101000a81548173ffffffffffffffffffffffffffffffffffffffff021916908373ffffffffffffffffffffffffffffffffffffffff16021790555060016000806101000a81548160ff021916908315150217905550600160009054906101000a900473ffffffffffffffffffffffffffffffffffffffff1691505090565b60025481565b60035481565b60008054906101000a900460ff16156107ff576040517f08c379a00000000000000000000000000000000000000000000000000000000081526004018080602001828103825260108152602001807f47616d652069732066696e69736865640000000000000000000000000000000081525060200191505060405180910390fd5b60025434101561085a576040517f08c379a000000000000000000000000000000000000000000000000000000000815260040180806020018281038252602c815260200180610a1c602c913960400191505060405180910390fd5b600073ffffffffffffffffffffffffffffffffffffffff16600060029054906101000a900473ffffffffffffffffffffffffffffffffffffffff1673ffffffffffffffffffffffffffffffffffffffff161461091e576040517f08c379a00000000000000000000000000000000000000000000000000000000081526004018080602001828103825260178152602001807f506c6179657220616c72656164792061737369676e656400000000000000000081525060200191505060405180910390fd5b3460038190555033600060026101000a81548173ffffffffffffffffffffffffffffffffffffffff021916908373ffffffffffffffffffffffffffffffffffffffff160217905550565b60008054906101000a900460ff1681565b600160009054906101000a900473ffffffffffffffffffffffffffffffffffffffff1681565b600060019054906101000a900460ff1681565b600060029054906101000a900473ffffffffffffffffffffffffffffffffffffffff1681565b600060fb424460405160200180838152602001828152602001925050506040516020818303038152906040528051906020012060001c81610a1557fe5b0690509056fe596f75206861766520746f20626574206d6f7265207468616e20746865206d696e696d756d20616d6f756e74a2646970667358221220a41f24ec924e8cfa1b681f44dbcbab471bdecf422d7335abb80474e281ca3d9e64736f6c63430007030033",
  "linkReferences": {},
  "deployedLinkReferences": {}
}