{
  "_format": "hh-sol-artifact-1",
  "contractName": "Tournament",
  "sourceName": "contracts/Tournament.sol",
  "abi": [
    {
      "anonymous": false,
      "inputs": [
        {
          "indexed": false,
          "internalType": "address",
          "name": "game",
          "type": "address"
        }
      ],
      "name": "newGame",
      "type": "event"
    },
    {
      "inputs": [],
      "name": "createGame",
      "outputs": [],
      "stateMutability": "payable",
      "type": "function"
    },
    {
      "inputs": [
        {
          "internalType": "uint256",
          "name": "",
          "type": "uint256"
        }
      ],
      "name": "games",
      "outputs": [
        {
          "internalType": "address",
          "name": "",
          "type": "address"
        }
      ],
      "stateMutability": "view",
      "type": "function"
    },
    {
      "inputs": [],
      "name": "getGames",
      "outputs": [
        {
          "internalType": "address[]",
          "name": "",
          "type": "address[]"
        }
      ],
      "stateMutability": "view",
      "type": "function"
    },
    {
      "inputs": [],
      "name": "minAmount",
      "outputs": [
        {
          "internalType": "uint256",
          "name": "",
          "type": "uint256"
        }
      ],
      "stateMutability": "view",
      "type": "function"
    }
  ],
  "bytecode": "0x608060405261271060015534801561001657600080fd5b506112d8806100266000396000f3fe60806040526004361061003f5760003560e01c8063117a5b90146100445780637255d729146100815780639b2cb5d81461008b578063c04c5947146100b6575b600080fd5b34801561005057600080fd5b5061006b60048036038101906100669190610351565b6100e1565b6040516100789190610440565b60405180910390f35b610089610120565b005b34801561009757600080fd5b506100a061029b565b6040516100ad919061049d565b60405180910390f35b3480156100c257600080fd5b506100cb6102a1565b6040516100d8919061045b565b60405180910390f35b600081815481106100f157600080fd5b906000526020600020016000915054906101000a900473ffffffffffffffffffffffffffffffffffffffff1681565b600154341015610165576040517f08c379a000000000000000000000000000000000000000000000000000000000815260040161015c9061047d565b60405180910390fd5b60006040516101739061032f565b604051809103906000f08015801561018f573d6000803e3d6000fd5b5090508073ffffffffffffffffffffffffffffffffffffffff1663dd0b281e34336040518363ffffffff1660e01b81526004016101cc9190610440565b6000604051808303818588803b1580156101e557600080fd5b505af11580156101f9573d6000803e3d6000fd5b50505050506000819080600181540180825580915050600190039060005260206000200160009091909190916101000a81548173ffffffffffffffffffffffffffffffffffffffff021916908373ffffffffffffffffffffffffffffffffffffffff1602179055507fc2e0b1e6e837332213858efe04fb920ca173dd36abb6951b9205d688cc04a682816040516102909190610440565b60405180910390a150565b60015481565b6060600080548060200260200160405190810160405280929190818152602001828054801561032557602002820191906000526020600020905b8160009054906101000a900473ffffffffffffffffffffffffffffffffffffffff1673ffffffffffffffffffffffffffffffffffffffff16815260200190600101908083116102db575b5050505050905090565b610cfe806105a583390190565b60008135905061034b8161058d565b92915050565b60006020828403121561036357600080fd5b60006103718482850161033c565b91505092915050565b60006103868383610392565b60208301905092915050565b61039b81610502565b82525050565b6103aa81610502565b82525050565b60006103bb826104c8565b6103c581856104e0565b93506103d0836104b8565b8060005b838110156104015781516103e8888261037a565b97506103f3836104d3565b9250506001810190506103d4565b5085935050505092915050565b600061041b602c836104f1565b91506104268261053e565b604082019050919050565b61043a81610534565b82525050565b600060208201905061045560008301846103a1565b92915050565b6000602082019050818103600083015261047581846103b0565b905092915050565b600060208201905081810360008301526104968161040e565b9050919050565b60006020820190506104b26000830184610431565b92915050565b6000819050602082019050919050565b600081519050919050565b6000602082019050919050565b600082825260208201905092915050565b600082825260208201905092915050565b600061050d82610514565b9050919050565b600073ffffffffffffffffffffffffffffffffffffffff82169050919050565b6000819050919050565b7f596f75206861766520746f20626574206d6f7265207468616e20746865206d6960008201527f6e696d756d20616d6f756e740000000000000000000000000000000000000000602082015250565b61059681610534565b81146105a157600080fd5b5056fe608060405260008060006101000a81548160ff02191690831515021790555060008060016101000a81548160ff02191690831515021790555034801561004457600080fd5b50610caa806100546000396000f3fe60806040526004361061007b5760003560e01c8063dd0b281e1161004e578063dd0b281e1461010b578063dfbf53ae14610127578063e4b656b114610152578063ec8f850b1461017d5761007b565b80633ccfd60b146100805780636b3039b71461009757806393e84cd9146100c2578063bef4876b146100e0575b600080fd5b34801561008c57600080fd5b506100956101a8565b005b3480156100a357600080fd5b506100ac610314565b6040516100b99190610a10565b60405180910390f35b6100ca61031a565b6040516100d791906108df565b60405180910390f35b3480156100ec57600080fd5b506100f56105a2565b6040516101029190610915565b60405180910390f35b61012560048036038101906101209190610742565b6105b3565b005b34801561013357600080fd5b5061013c61068f565b60405161014991906108fa565b60405180910390f35b34801561015e57600080fd5b506101676106b5565b60405161017491906108fa565b60405180910390f35b34801561018957600080fd5b506101926106db565b60405161019f9190610915565b60405180910390f35b600160009054906101000a900473ffffffffffffffffffffffffffffffffffffffff1673ffffffffffffffffffffffffffffffffffffffff163373ffffffffffffffffffffffffffffffffffffffff1614610238576040517f08c379a000000000000000000000000000000000000000000000000000000000815260040161022f90610970565b60405180910390fd5b60001515600060019054906101000a900460ff1615151461028e576040517f08c379a000000000000000000000000000000000000000000000000000000000815260040161028590610990565b60405180910390fd5b6001600060016101000a81548160ff021916908315150217905550600160009054906101000a900473ffffffffffffffffffffffffffffffffffffffff1673ffffffffffffffffffffffffffffffffffffffff166108fc479081150290604051600060405180830381858888f19350505050158015610311573d6000803e3d6000fd5b50565b60025481565b60008060009054906101000a900460ff161561036b576040517f08c379a0000000000000000000000000000000000000000000000000000000008152600401610362906109b0565b60405180910390fd5b600073ffffffffffffffffffffffffffffffffffffffff16600060029054906101000a900473ffffffffffffffffffffffffffffffffffffffff1673ffffffffffffffffffffffffffffffffffffffff1614156103fd576040517f08c379a00000000000000000000000000000000000000000000000000000000081526004016103f4906109d0565b60405180910390fd5b3373ffffffffffffffffffffffffffffffffffffffff16600060029054906101000a900473ffffffffffffffffffffffffffffffffffffffff1673ffffffffffffffffffffffffffffffffffffffff16141561048e576040517f08c379a000000000000000000000000000000000000000000000000000000000815260040161048590610930565b60405180910390fd5b60025434146104d2576040517f08c379a00000000000000000000000000000000000000000000000000000000081526004016104c9906109f0565b60405180910390fd5b600060026104de6106ee565b6104e89190610ade565b905060008160ff161461051d57600060029054906101000a900473ffffffffffffffffffffffffffffffffffffffff1661051f565b335b600160006101000a81548173ffffffffffffffffffffffffffffffffffffffff021916908373ffffffffffffffffffffffffffffffffffffffff16021790555060016000806101000a81548160ff021916908315150217905550600160009054906101000a900473ffffffffffffffffffffffffffffffffffffffff1691505090565b60008054906101000a900460ff1681565b600073ffffffffffffffffffffffffffffffffffffffff16600060029054906101000a900473ffffffffffffffffffffffffffffffffffffffff1673ffffffffffffffffffffffffffffffffffffffff1614610644576040517f08c379a000000000000000000000000000000000000000000000000000000000815260040161063b90610950565b60405180910390fd5b3460028190555080600060026101000a81548173ffffffffffffffffffffffffffffffffffffffff021916908373ffffffffffffffffffffffffffffffffffffffff16021790555050565b600160009054906101000a900473ffffffffffffffffffffffffffffffffffffffff1681565b600060029054906101000a900473ffffffffffffffffffffffffffffffffffffffff1681565b600060019054906101000a900460ff1681565b600060fb42446040516020016107059291906108b3565b6040516020818303038152906040528051906020012060001c6107289190610aad565b905090565b60008135905061073c81610c5d565b92915050565b60006020828403121561075457600080fd5b60006107628482850161072d565b91505092915050565b61077481610a4e565b82525050565b61078381610a3c565b82525050565b61079281610a60565b82525050565b60006107a5601a83610a2b565b91506107b082610b3e565b602082019050919050565b60006107c8601383610a2b565b91506107d382610b67565b602082019050919050565b60006107eb601683610a2b565b91506107f682610b90565b602082019050919050565b600061080e601483610a2b565b915061081982610bb9565b602082019050919050565b6000610831601083610a2b565b915061083c82610be2565b602082019050919050565b6000610854601283610a2b565b915061085f82610c0b565b602082019050919050565b6000610877601c83610a2b565b915061088282610c34565b602082019050919050565b61089681610a8c565b82525050565b6108ad6108a882610a8c565b610aa3565b82525050565b60006108bf828561089c565b6020820191506108cf828461089c565b6020820191508190509392505050565b60006020820190506108f4600083018461077a565b92915050565b600060208201905061090f600083018461076b565b92915050565b600060208201905061092a6000830184610789565b92915050565b6000602082019050818103600083015261094981610798565b9050919050565b60006020820190508181036000830152610969816107bb565b9050919050565b60006020820190508181036000830152610989816107de565b9050919050565b600060208201905081810360008301526109a981610801565b9050919050565b600060208201905081810360008301526109c981610824565b9050919050565b600060208201905081810360008301526109e981610847565b9050919050565b60006020820190508181036000830152610a098161086a565b9050919050565b6000602082019050610a25600083018461088d565b92915050565b600082825260208201905092915050565b6000610a4782610a6c565b9050919050565b6000610a5982610a6c565b9050919050565b60008115159050919050565b600073ffffffffffffffffffffffffffffffffffffffff82169050919050565b6000819050919050565b600060ff82169050919050565b6000819050919050565b6000610ab882610a8c565b9150610ac383610a8c565b925082610ad357610ad2610b0f565b5b828206905092915050565b6000610ae982610a96565b9150610af483610a96565b925082610b0457610b03610b0f565b5b828206905092915050565b7f4e487b7100000000000000000000000000000000000000000000000000000000600052601260045260246000fd5b7f506c6179657220616c726561647920696e207468652067616d65000000000000600082015250565b7f47616d626c657220616c72656164792073657400000000000000000000000000600082015250565b7f596f7520617265206e6f74207468652077696e6e657200000000000000000000600082015250565b7f466f756e64732077657265207769746864726177000000000000000000000000600082015250565b7f47616d652069732066696e697368656400000000000000000000000000000000600082015250565b7f53746172746572206973206e6f74207365740000000000000000000000000000600082015250565b7f596f752061726520657863656564696e672074686520616d6f756e7400000000600082015250565b610c6681610a3c565b8114610c7157600080fd5b5056fea26469706673582212203fee89020a86990eb8758f6d0eb788f533cf341185390de4a080279c123d344564736f6c63430008020033a2646970667358221220280c7c4eaee38178fd5a939aefe962c2f0b59cba92948583ec8e70391e7c0e0064736f6c63430008020033",
  "linkReferences": {},
  "deployedLinkReferences": {}
}