{
  "_format": "hh-sol-artifact-1",
  "contractName": "Casino",
  "sourceName": "contracts/Casino.sol",
  "abi": [
    {
      "anonymous": false,
      "inputs": [
        {
          "indexed": false,
          "internalType": "contract Gambler",
          "name": "gambler",
          "type": "address"
        }
      ],
      "name": "gamblerRegistered",
      "type": "event"
    },
    {
      "anonymous": false,
      "inputs": [
        {
          "indexed": false,
          "internalType": "contract Game",
          "name": "game",
          "type": "address"
        }
      ],
      "name": "newGame",
      "type": "event"
    },
    {
      "inputs": [
        {
          "internalType": "contract Gambler",
          "name": "gambler",
          "type": "address"
        }
      ],
      "name": "createGame",
      "outputs": [],
      "stateMutability": "payable",
      "type": "function"
    },
    {
      "inputs": [
        {
          "internalType": "address",
          "name": "",
          "type": "address"
        }
      ],
      "name": "gamblers",
      "outputs": [
        {
          "internalType": "contract Gambler",
          "name": "",
          "type": "address"
        }
      ],
      "stateMutability": "view",
      "type": "function"
    },
    {
      "inputs": [
        {
          "internalType": "uint256",
          "name": "",
          "type": "uint256"
        }
      ],
      "name": "gamblersRegistered",
      "outputs": [
        {
          "internalType": "contract Gambler",
          "name": "",
          "type": "address"
        }
      ],
      "stateMutability": "view",
      "type": "function"
    },
    {
      "inputs": [
        {
          "internalType": "uint256",
          "name": "",
          "type": "uint256"
        }
      ],
      "name": "games",
      "outputs": [
        {
          "internalType": "contract Game",
          "name": "",
          "type": "address"
        }
      ],
      "stateMutability": "view",
      "type": "function"
    },
    {
      "inputs": [
        {
          "internalType": "address",
          "name": "gamblerAddress",
          "type": "address"
        }
      ],
      "name": "getGambler",
      "outputs": [
        {
          "internalType": "contract Gambler",
          "name": "",
          "type": "address"
        }
      ],
      "stateMutability": "view",
      "type": "function"
    },
    {
      "inputs": [],
      "name": "getGamblers",
      "outputs": [
        {
          "internalType": "contract Gambler[]",
          "name": "",
          "type": "address[]"
        }
      ],
      "stateMutability": "view",
      "type": "function"
    },
    {
      "inputs": [],
      "name": "getGameCount",
      "outputs": [
        {
          "internalType": "uint256",
          "name": "",
          "type": "uint256"
        }
      ],
      "stateMutability": "view",
      "type": "function"
    },
    {
      "inputs": [],
      "name": "getGames",
      "outputs": [
        {
          "internalType": "contract Game[]",
          "name": "",
          "type": "address[]"
        }
      ],
      "stateMutability": "view",
      "type": "function"
    },
    {
      "inputs": [
        {
          "internalType": "string",
          "name": "name",
          "type": "string"
        }
      ],
      "name": "registerGambler",
      "outputs": [],
      "stateMutability": "nonpayable",
      "type": "function"
    }
  ],
  "bytecode": "0x608060405234801561001057600080fd5b5061304f806100206000396000f3fe608060405260043610620000925760003560e01c8063474d0b5a1162000061578063474d0b5a14620001935780635c35392314620001b3578063c04c594714620001f7578063d471486e1462000227578063e87c0ee614620002555762000092565b806309eeebb01462000097578063117a5b9014620000c75780631f9340f8146200010b5780633934a808146200014f575b600080fd5b348015620000a457600080fd5b50620000af62000285565b604051620000be919062000c80565b60405180910390f35b348015620000d457600080fd5b50620000f36004803603810190620000ed919062000a23565b62000315565b60405162000102919062000ce5565b60405180910390f35b3480156200011857600080fd5b5062000137600480360381019062000131919062000a23565b62000355565b60405162000146919062000cc8565b60405180910390f35b3480156200015c57600080fd5b506200017b600480360381019062000175919062000986565b62000395565b6040516200018a919062000cc8565b60405180910390f35b620001b16004803603810190620001ab9190620009b2565b62000476565b005b348015620001c057600080fd5b50620001df6004803603810190620001d9919062000986565b620005b6565b604051620001ee919062000cc8565b60405180910390f35b3480156200020457600080fd5b506200020f620005e9565b6040516200021e919062000ca4565b60405180910390f35b3480156200023457600080fd5b506200025360048036038101906200024d9190620009de565b62000679565b005b3480156200026257600080fd5b506200026d620008a7565b6040516200027c919062000d46565b60405180910390f35b606060018054806020026020016040519081016040528092919081815260200182805480156200030b57602002820191906000526020600020905b8160009054906101000a900473ffffffffffffffffffffffffffffffffffffffff1673ffffffffffffffffffffffffffffffffffffffff1681526020019060010190808311620002c0575b5050505050905090565b600081815481106200032657600080fd5b906000526020600020016000915054906101000a900473ffffffffffffffffffffffffffffffffffffffff1681565b600181815481106200036657600080fd5b906000526020600020016000915054906101000a900473ffffffffffffffffffffffffffffffffffffffff1681565b600080600260008473ffffffffffffffffffffffffffffffffffffffff1673ffffffffffffffffffffffffffffffffffffffff16815260200190815260200160002060009054906101000a900473ffffffffffffffffffffffffffffffffffffffff169050600073ffffffffffffffffffffffffffffffffffffffff168173ffffffffffffffffffffffffffffffffffffffff1614156200046d576040517f08c379a0000000000000000000000000000000000000000000000000000000008152600401620004649062000d02565b60405180910390fd5b80915050919050565b60006040516200048690620008b3565b604051809103906000f080158015620004a3573d6000803e3d6000fd5b5090508073ffffffffffffffffffffffffffffffffffffffff1663dd0b281e34846040518363ffffffff1660e01b8152600401620004e2919062000cc8565b6000604051808303818588803b158015620004fc57600080fd5b505af115801562000511573d6000803e3d6000fd5b50505050506000819080600181540180825580915050600190039060005260206000200160009091909190916101000a81548173ffffffffffffffffffffffffffffffffffffffff021916908373ffffffffffffffffffffffffffffffffffffffff1602179055507fc2e0b1e6e837332213858efe04fb920ca173dd36abb6951b9205d688cc04a68281604051620005aa919062000ce5565b60405180910390a15050565b60026020528060005260406000206000915054906101000a900473ffffffffffffffffffffffffffffffffffffffff1681565b606060008054806020026020016040519081016040528092919081815260200182805480156200066f57602002820191906000526020600020905b8160009054906101000a900473ffffffffffffffffffffffffffffffffffffffff1673ffffffffffffffffffffffffffffffffffffffff168152602001906001019080831162000624575b5050505050905090565b600073ffffffffffffffffffffffffffffffffffffffff16600260003373ffffffffffffffffffffffffffffffffffffffff1673ffffffffffffffffffffffffffffffffffffffff16815260200190815260200160002060009054906101000a900473ffffffffffffffffffffffffffffffffffffffff1673ffffffffffffffffffffffffffffffffffffffff16146200074a576040517f08c379a0000000000000000000000000000000000000000000000000000000008152600401620007419062000d24565b60405180910390fd5b600033826040516200075c90620008c1565b6200076992919062000c4c565b604051809103906000f08015801562000786573d6000803e3d6000fd5b5090506001819080600181540180825580915050600190039060005260206000200160009091909190916101000a81548173ffffffffffffffffffffffffffffffffffffffff021916908373ffffffffffffffffffffffffffffffffffffffff16021790555080600260003373ffffffffffffffffffffffffffffffffffffffff1673ffffffffffffffffffffffffffffffffffffffff16815260200190815260200160002060006101000a81548173ffffffffffffffffffffffffffffffffffffffff021916908373ffffffffffffffffffffffffffffffffffffffff1602179055507f25115785f0ac282478739bdaadd17966a61927fe79ba0bc5742c3f7518c4f25c816040516200089b919062000cc8565b60405180910390a15050565b60008080549050905090565b610dab806200106383390190565b61120c8062001e0e83390190565b6000620008e6620008e08462000d8c565b62000d63565b905082815260208101848484011115620008ff57600080fd5b6200090c84828562000ee1565b509392505050565b600081359050620009258162001014565b92915050565b6000813590506200093c816200102e565b92915050565b600082601f8301126200095457600080fd5b813562000966848260208601620008cf565b91505092915050565b600081359050620009808162001048565b92915050565b6000602082840312156200099957600080fd5b6000620009a98482850162000914565b91505092915050565b600060208284031215620009c557600080fd5b6000620009d5848285016200092b565b91505092915050565b600060208284031215620009f157600080fd5b600082013567ffffffffffffffff81111562000a0c57600080fd5b62000a1a8482850162000942565b91505092915050565b60006020828403121562000a3657600080fd5b600062000a46848285016200096f565b91505092915050565b600062000a5d838362000b68565b60208301905092915050565b600062000a77838362000b8a565b60208301905092915050565b62000a8e8162000e3f565b82525050565b600062000aa18262000de2565b62000aad818562000e1d565b935062000aba8362000dc2565b8060005b8381101562000af157815162000ad5888262000a4f565b975062000ae28362000e03565b92505060018101905062000abe565b5085935050505092915050565b600062000b0b8262000ded565b62000b17818562000e1d565b935062000b248362000dd2565b8060005b8381101562000b5b57815162000b3f888262000a69565b975062000b4c8362000e10565b92505060018101905062000b28565b5085935050505092915050565b62000b738162000e91565b82525050565b62000b848162000e91565b82525050565b62000b958162000eb9565b82525050565b62000ba68162000eb9565b82525050565b600062000bb98262000df8565b62000bc5818562000e2e565b935062000bd781856020860162000ef0565b62000be28162000f8b565b840191505092915050565b600062000bfc602e8362000e2e565b915062000c098262000f9c565b604082019050919050565b600062000c23601a8362000e2e565b915062000c308262000feb565b602082019050919050565b62000c468162000e87565b82525050565b600060408201905062000c63600083018562000a83565b818103602083015262000c77818462000bac565b90509392505050565b6000602082019050818103600083015262000c9c818462000a94565b905092915050565b6000602082019050818103600083015262000cc0818462000afe565b905092915050565b600060208201905062000cdf600083018462000b79565b92915050565b600060208201905062000cfc600083018462000b9b565b92915050565b6000602082019050818103600083015262000d1d8162000bed565b9050919050565b6000602082019050818103600083015262000d3f8162000c14565b9050919050565b600060208201905062000d5d600083018462000c3b565b92915050565b600062000d6f62000d82565b905062000d7d828262000f26565b919050565b6000604051905090565b600067ffffffffffffffff82111562000daa5762000da962000f5c565b5b62000db58262000f8b565b9050602081019050919050565b6000819050602082019050919050565b6000819050602082019050919050565b600081519050919050565b600081519050919050565b600081519050919050565b6000602082019050919050565b6000602082019050919050565b600082825260208201905092915050565b600082825260208201905092915050565b600062000e4c8262000e67565b9050919050565b600062000e608262000e3f565b9050919050565b600073ffffffffffffffffffffffffffffffffffffffff82169050919050565b6000819050919050565b600062000e9e8262000ea5565b9050919050565b600062000eb28262000e67565b9050919050565b600062000ec68262000ecd565b9050919050565b600062000eda8262000e67565b9050919050565b82818337600083830152505050565b60005b8381101562000f1057808201518184015260208101905062000ef3565b8381111562000f20576000848401525b50505050565b62000f318262000f8b565b810181811067ffffffffffffffff8211171562000f535762000f5262000f5c565b5b80604052505050565b7f4e487b7100000000000000000000000000000000000000000000000000000000600052604160045260246000fd5b6000601f19601f8301169050919050565b7f47616d626c6572206e6f7420666f756e642e20506c6561736520636f6e73696460008201527f6572207265676973746572696e67000000000000000000000000000000000000602082015250565b7f47616d626c657220616c72656164792072656769737465726564000000000000600082015250565b6200101f8162000e3f565b81146200102b57600080fd5b50565b620010398162000e53565b81146200104557600080fd5b50565b620010538162000e87565b81146200105f57600080fd5b5056fe60806040526127106000556000600260006101000a81548160ff02191690831515021790555034801561003157600080fd5b50610d6a806100416000396000f3fe60806040526004361061007b5760003560e01c8063d30895e41161004e578063d30895e41461012c578063dd0b281e14610157578063dfbf53ae14610173578063e492814f1461019e5761007b565b806359a5f12d146100805780636b3039b7146100ab5780639b2cb5d8146100d6578063bef4876b14610101575b600080fd5b34801561008c57600080fd5b506100956101ba565b6040516100a291906109c7565b60405180910390f35b3480156100b757600080fd5b506100c06101e0565b6040516100cd9190610a9d565b60405180910390f35b3480156100e257600080fd5b506100eb6101e6565b6040516100f89190610a9d565b60405180910390f35b34801561010d57600080fd5b506101166101ec565b60405161012391906109ac565b60405180910390f35b34801561013857600080fd5b506101416101ff565b60405161014e91906109c7565b60405180910390f35b610171600480360381019061016c9190610855565b610225565b005b34801561017f57600080fd5b506101886102b5565b60405161019591906109c7565b60405180910390f35b6101b860048036038101906101b39190610855565b6102db565b005b600360009054906101000a900473ffffffffffffffffffffffffffffffffffffffff1681565b60015481565b60005481565b600260009054906101000a900460ff1681565b600260019054906101000a900473ffffffffffffffffffffffffffffffffffffffff1681565b60005434101561026a576040517f08c379a000000000000000000000000000000000000000000000000000000000815260040161026190610a5d565b60405180910390fd5b80600260016101000a81548173ffffffffffffffffffffffffffffffffffffffff021916908373ffffffffffffffffffffffffffffffffffffffff1602179055503460018190555050565b600460009054906101000a900473ffffffffffffffffffffffffffffffffffffffff1681565b600260009054906101000a900460ff161561032b576040517f08c379a000000000000000000000000000000000000000000000000000000000815260040161032290610a3d565b60405180910390fd5b600073ffffffffffffffffffffffffffffffffffffffff16600260019054906101000a900473ffffffffffffffffffffffffffffffffffffffff1673ffffffffffffffffffffffffffffffffffffffff1614156103bd576040517f08c379a00000000000000000000000000000000000000000000000000000000081526004016103b490610a7d565b60405180910390fd5b8073ffffffffffffffffffffffffffffffffffffffff1663767800de6040518163ffffffff1660e01b815260040160206040518083038186803b15801561040357600080fd5b505afa158015610417573d6000803e3d6000fd5b505050506040513d601f19601f8201168201806040525081019061043b919061082c565b73ffffffffffffffffffffffffffffffffffffffff16600260019054906101000a900473ffffffffffffffffffffffffffffffffffffffff1673ffffffffffffffffffffffffffffffffffffffff1663767800de6040518163ffffffff1660e01b815260040160206040518083038186803b1580156104b957600080fd5b505afa1580156104cd573d6000803e3d6000fd5b505050506040513d601f19601f820116820180604052508101906104f1919061082c565b73ffffffffffffffffffffffffffffffffffffffff161415610548576040517f08c379a000000000000000000000000000000000000000000000000000000000815260040161053f906109fd565b60405180910390fd5b600154341461058c576040517f08c379a000000000000000000000000000000000000000000000000000000000815260040161058390610a1d565b60405180910390fd5b6001600260006101000a81548160ff02191690831515021790555080600360006101000a81548173ffffffffffffffffffffffffffffffffffffffff021916908373ffffffffffffffffffffffffffffffffffffffff160217905550600060026105f46107c3565b6105fe9190610bb3565b905060008160ff16141561067457600360009054906101000a900473ffffffffffffffffffffffffffffffffffffffff16600460006101000a81548173ffffffffffffffffffffffffffffffffffffffff021916908373ffffffffffffffffffffffffffffffffffffffff1602179055506106d8565b600260019054906101000a900473ffffffffffffffffffffffffffffffffffffffff16600460006101000a81548173ffffffffffffffffffffffffffffffffffffffff021916908373ffffffffffffffffffffffffffffffffffffffff1602179055505b600460009054906101000a900473ffffffffffffffffffffffffffffffffffffffff1673ffffffffffffffffffffffffffffffffffffffff1663e7c974a847306040518363ffffffff1660e01b815260040161073491906109e2565b6000604051808303818588803b15801561074d57600080fd5b505af1158015610761573d6000803e3d6000fd5b50505050507f81e97563510fc38d40a27c898055562062927ad214b195ca16800560a5884875600460009054906101000a900473ffffffffffffffffffffffffffffffffffffffff166040516107b791906109c7565b60405180910390a15050565b600060fb42446040516020016107da929190610980565b6040516020818303038152906040528051906020012060001c6107fd9190610b82565b905090565b60008151905061081181610d06565b92915050565b60008135905061082681610d1d565b92915050565b60006020828403121561083e57600080fd5b600061084c84828501610802565b91505092915050565b60006020828403121561086757600080fd5b600061087584828501610817565b91505092915050565b61088781610adb565b82525050565b61089681610b30565b82525050565b6108a581610b54565b82525050565b60006108b8601a83610ab8565b91506108c382610c13565b602082019050919050565b60006108db601f83610ab8565b91506108e682610c3c565b602082019050919050565b60006108fe601083610ab8565b915061090982610c65565b602082019050919050565b6000610921602c83610ab8565b915061092c82610c8e565b604082019050919050565b6000610944601283610ab8565b915061094f82610cdd565b602082019050919050565b61096381610b19565b82525050565b61097a61097582610b19565b610b78565b82525050565b600061098c8285610969565b60208201915061099c8284610969565b6020820191508190509392505050565b60006020820190506109c1600083018461087e565b92915050565b60006020820190506109dc600083018461088d565b92915050565b60006020820190506109f7600083018461089c565b92915050565b60006020820190508181036000830152610a16816108ab565b9050919050565b60006020820190508181036000830152610a36816108ce565b9050919050565b60006020820190508181036000830152610a56816108f1565b9050919050565b60006020820190508181036000830152610a7681610914565b9050919050565b60006020820190508181036000830152610a9681610937565b9050919050565b6000602082019050610ab2600083018461095a565b92915050565b600082825260208201905092915050565b6000610ad482610af9565b9050919050565b60008115159050919050565b6000610af282610ac9565b9050919050565b600073ffffffffffffffffffffffffffffffffffffffff82169050919050565b6000819050919050565b600060ff82169050919050565b6000610b3b82610b42565b9050919050565b6000610b4d82610af9565b9050919050565b6000610b5f82610b66565b9050919050565b6000610b7182610af9565b9050919050565b6000819050919050565b6000610b8d82610b19565b9150610b9883610b19565b925082610ba857610ba7610be4565b5b828206905092915050565b6000610bbe82610b23565b9150610bc983610b23565b925082610bd957610bd8610be4565b5b828206905092915050565b7f4e487b7100000000000000000000000000000000000000000000000000000000600052601260045260246000fd5b7f506c6179657220616c726561647920696e207468652067616d65000000000000600082015250565b7f596f75206861766520746f2073656e64207468652062697420616d6f756e7400600082015250565b7f47616d652069732066696e697368656400000000000000000000000000000000600082015250565b7f596f75206861766520746f20626574206d6f7265207468616e20746865206d6960008201527f6e696d756d20616d6f756e740000000000000000000000000000000000000000602082015250565b7f53746172746572206973206e6f74207365740000000000000000000000000000600082015250565b610d0f81610ac9565b8114610d1a57600080fd5b50565b610d2681610ae7565b8114610d3157600080fd5b5056fea2646970667358221220519782234644525cbc8a7b9e9ac10f3336db3ce6d5deebe6060abf7c1cafff4564736f6c63430008020033608060405260006002556000600560006101000a81548160ff0219169083151502179055503480156200003157600080fd5b506040516200120c3803806200120c8339818101604052810190620000579190620001f2565b81600360006101000a81548173ffffffffffffffffffffffffffffffffffffffff021916908373ffffffffffffffffffffffffffffffffffffffff1602179055508060049080519060200190620000b0929190620000b9565b5050506200040a565b828054620000c79062000315565b90600052602060002090601f016020900481019282620000eb576000855562000137565b82601f106200010657805160ff191683800117855562000137565b8280016001018555821562000137579182015b828111156200013657825182559160200191906001019062000119565b5b5090506200014691906200014a565b5090565b5b80821115620001655760008160009055506001016200014b565b5090565b6000620001806200017a8462000275565b6200024c565b9050828152602081018484840111156200019957600080fd5b620001a6848285620002df565b509392505050565b600081519050620001bf81620003f0565b92915050565b600082601f830112620001d757600080fd5b8151620001e984826020860162000169565b91505092915050565b600080604083850312156200020657600080fd5b60006200021685828601620001ae565b925050602083015167ffffffffffffffff8111156200023457600080fd5b6200024285828601620001c5565b9150509250929050565b6000620002586200026b565b90506200026682826200034b565b919050565b6000604051905090565b600067ffffffffffffffff821115620002935762000292620003b0565b5b6200029e82620003df565b9050602081019050919050565b6000620002b882620002bf565b9050919050565b600073ffffffffffffffffffffffffffffffffffffffff82169050919050565b60005b83811015620002ff578082015181840152602081019050620002e2565b838111156200030f576000848401525b50505050565b600060028204905060018216806200032e57607f821691505b6020821081141562000345576200034462000381565b5b50919050565b6200035682620003df565b810181811067ffffffffffffffff82111715620003785762000377620003b0565b5b80604052505050565b7f4e487b7100000000000000000000000000000000000000000000000000000000600052602260045260246000fd5b7f4e487b7100000000000000000000000000000000000000000000000000000000600052604160045260246000fd5b6000601f19601f8301169050919050565b620003fb81620002ab565b81146200040757600080fd5b50565b610df2806200041a6000396000f3fe60806040526004361061009b5760003560e01c80636aee3fb1116100645780636aee3fb114610175578063767800de146101a05780637dc421a2146101cb5780639b36057c14610208578063c04c594714610231578063e7c974a81461025c5761009b565b8062c03ee6146100a057806306fdde03146100dd57806328102e54146101085780633ccfd60b146101335780636395fa271461014a575b600080fd5b3480156100ac57600080fd5b506100c760048036038101906100c2919061081e565b610278565b6040516100d491906109fb565b60405180910390f35b3480156100e957600080fd5b506100f26102b7565b6040516100ff9190610a16565b60405180910390f35b34801561011457600080fd5b5061011d610345565b60405161012a9190610ab8565b60405180910390f35b34801561013f57600080fd5b5061014861034b565b005b34801561015657600080fd5b5061015f610515565b60405161016c9190610ab8565b60405180910390f35b34801561018157600080fd5b5061018a610522565b60405161019791906109d9565b60405180910390f35b3480156101ac57600080fd5b506101b56105b0565b6040516101c291906109be565b60405180910390f35b3480156101d757600080fd5b506101f260048036038101906101ed919061081e565b6105d6565b6040516101ff91906109fb565b60405180910390f35b34801561021457600080fd5b5061022f600480360381019061022a91906107f5565b610615565b005b34801561023d57600080fd5b5061024661067b565b60405161025391906109d9565b60405180910390f35b610276600480360381019061027191906107f5565b610709565b005b6000818154811061028857600080fd5b906000526020600020016000915054906101000a900473ffffffffffffffffffffffffffffffffffffffff1681565b600480546102c490610c23565b80601f01602080910402602001604051908101604052809291908181526020018280546102f090610c23565b801561033d5780601f106103125761010080835404028352916020019161033d565b820191906000526020600020905b81548152906001019060200180831161032057829003601f168201915b505050505081565b60025481565b6000479050600360009054906101000a900473ffffffffffffffffffffffffffffffffffffffff1673ffffffffffffffffffffffffffffffffffffffff163373ffffffffffffffffffffffffffffffffffffffff16146103e0576040517f08c379a00000000000000000000000000000000000000000000000000000000081526004016103d790610a58565b60405180910390fd5b600560009054906101000a900460ff1615610430576040517f08c379a000000000000000000000000000000000000000000000000000000000815260040161042790610a78565b60405180910390fd5b60008111610473576040517f08c379a000000000000000000000000000000000000000000000000000000000815260040161046a90610a98565b60405180910390fd5b6001600560006101000a81548160ff021916908315150217905550600360009054906101000a900473ffffffffffffffffffffffffffffffffffffffff1673ffffffffffffffffffffffffffffffffffffffff166108fc829081150290604051600060405180830381858888f193505050501580156104f6573d6000803e3d6000fd5b506000600560006101000a81548160ff02191690831515021790555050565b6000600180549050905090565b606060018054806020026020016040519081016040528092919081815260200182805480156105a657602002820191906000526020600020905b8160009054906101000a900473ffffffffffffffffffffffffffffffffffffffff1673ffffffffffffffffffffffffffffffffffffffff168152602001906001019080831161055c575b5050505050905090565b600360009054906101000a900473ffffffffffffffffffffffffffffffffffffffff1681565b600181815481106105e657600080fd5b906000526020600020016000915054906101000a900473ffffffffffffffffffffffffffffffffffffffff1681565b6000819080600181540180825580915050600190039060005260206000200160009091909190916101000a81548173ffffffffffffffffffffffffffffffffffffffff021916908373ffffffffffffffffffffffffffffffffffffffff16021790555050565b606060008054806020026020016040519081016040528092919081815260200182805480156106ff57602002820191906000526020600020905b8160009054906101000a900473ffffffffffffffffffffffffffffffffffffffff1673ffffffffffffffffffffffffffffffffffffffff16815260200190600101908083116106b5575b5050505050905090565b6000341161074c576040517f08c379a000000000000000000000000000000000000000000000000000000000815260040161074390610a38565b60405180910390fd5b346002600082825461075e9190610b28565b925050819055506001819080600181540180825580915050600190039060005260206000200160009091909190916101000a81548173ffffffffffffffffffffffffffffffffffffffff021916908373ffffffffffffffffffffffffffffffffffffffff16021790555050565b6000813590506107da81610d8e565b92915050565b6000813590506107ef81610da5565b92915050565b60006020828403121561080757600080fd5b6000610815848285016107cb565b91505092915050565b60006020828403121561083057600080fd5b600061083e848285016107e0565b91505092915050565b600061085383836108cc565b60208301905092915050565b61086881610b7e565b82525050565b600061087982610ae3565b6108838185610b06565b935061088e83610ad3565b8060005b838110156108bf5781516108a68882610847565b97506108b183610af9565b925050600181019050610892565b5085935050505092915050565b6108d581610bcc565b82525050565b6108e481610bcc565b82525050565b60006108f582610aee565b6108ff8185610b17565b935061090f818560208601610bf0565b61091881610cb3565b840191505092915050565b6000610930601183610b17565b915061093b82610cc4565b602082019050919050565b6000610953602783610b17565b915061095e82610ced565b604082019050919050565b6000610976601783610b17565b915061098182610d3c565b602082019050919050565b6000610999601383610b17565b91506109a482610d65565b602082019050919050565b6109b881610bc2565b82525050565b60006020820190506109d3600083018461085f565b92915050565b600060208201905081810360008301526109f3818461086e565b905092915050565b6000602082019050610a1060008301846108db565b92915050565b60006020820190508181036000830152610a3081846108ea565b905092915050565b60006020820190508181036000830152610a5181610923565b9050919050565b60006020820190508181036000830152610a7181610946565b9050919050565b60006020820190508181036000830152610a9181610969565b9050919050565b60006020820190508181036000830152610ab18161098c565b9050919050565b6000602082019050610acd60008301846109af565b92915050565b6000819050602082019050919050565b600081519050919050565b600081519050919050565b6000602082019050919050565b600082825260208201905092915050565b600082825260208201905092915050565b6000610b3382610bc2565b9150610b3e83610bc2565b9250827fffffffffffffffffffffffffffffffffffffffffffffffffffffffffffffffff03821115610b7357610b72610c55565b5b828201905092915050565b6000610b8982610ba2565b9050919050565b6000610b9b82610b7e565b9050919050565b600073ffffffffffffffffffffffffffffffffffffffff82169050919050565b6000819050919050565b6000610bd782610bde565b9050919050565b6000610be982610ba2565b9050919050565b60005b83811015610c0e578082015181840152602081019050610bf3565b83811115610c1d576000848401525b50505050565b60006002820490506001821680610c3b57607f821691505b60208210811415610c4f57610c4e610c84565b5b50919050565b7f4e487b7100000000000000000000000000000000000000000000000000000000600052601160045260246000fd5b7f4e487b7100000000000000000000000000000000000000000000000000000000600052602260045260246000fd5b6000601f19601f8301169050919050565b7f6e6f207072697a65207265636569766564000000000000000000000000000000600082015250565b7f796f7520617265206e6f7420616c6c6f7720746f20776974686472617720746860008201527f652066756e647300000000000000000000000000000000000000000000000000602082015250565b7f5472616e73616374696e6720696e2070726f6772657373000000000000000000600082015250565b7f6e6f7468696e6720746f20776974686472617700000000000000000000000000600082015250565b610d9781610b90565b8114610da257600080fd5b50565b610dae81610bc2565b8114610db957600080fd5b5056fea2646970667358221220db5979c8d470549ba0f61d708e8ac164e15acca2417056e2fa41f64a1168d5c464736f6c63430008020033a2646970667358221220ae86503a1bb84088e3833363e0713d5b684c2d36f8cf30e576bb9692e702700d64736f6c63430008020033",
  "linkReferences": {},
  "deployedLinkReferences": {}
}