{
  "_format": "hh-sol-artifact-1",
  "contractName": "Gambler",
  "sourceName": "contracts/Casino.sol",
  "abi": [
    {
      "inputs": [
        {
          "internalType": "address",
          "name": "gamblerAddress",
          "type": "address"
        },
        {
          "internalType": "string",
          "name": "gamblerName",
          "type": "string"
        }
      ],
      "stateMutability": "nonpayable",
      "type": "constructor"
    },
    {
      "inputs": [],
      "name": "addr",
      "outputs": [
        {
          "internalType": "address",
          "name": "",
          "type": "address"
        }
      ],
      "stateMutability": "view",
      "type": "function"
    },
    {
      "inputs": [],
      "name": "amountWon",
      "outputs": [
        {
          "internalType": "uint256",
          "name": "",
          "type": "uint256"
        }
      ],
      "stateMutability": "view",
      "type": "function"
    },
    {
      "inputs": [
        {
          "internalType": "uint256",
          "name": "",
          "type": "uint256"
        }
      ],
      "name": "gamblerGames",
      "outputs": [
        {
          "internalType": "contract Game",
          "name": "",
          "type": "address"
        }
      ],
      "stateMutability": "view",
      "type": "function"
    },
    {
      "inputs": [
        {
          "internalType": "uint256",
          "name": "",
          "type": "uint256"
        }
      ],
      "name": "gamesWon",
      "outputs": [
        {
          "internalType": "contract Game",
          "name": "",
          "type": "address"
        }
      ],
      "stateMutability": "view",
      "type": "function"
    },
    {
      "inputs": [],
      "name": "getGames",
      "outputs": [
        {
          "internalType": "contract Game[]",
          "name": "",
          "type": "address[]"
        }
      ],
      "stateMutability": "view",
      "type": "function"
    },
    {
      "inputs": [],
      "name": "getGamesWon",
      "outputs": [
        {
          "internalType": "contract Game[]",
          "name": "",
          "type": "address[]"
        }
      ],
      "stateMutability": "view",
      "type": "function"
    },
    {
      "inputs": [],
      "name": "name",
      "outputs": [
        {
          "internalType": "string",
          "name": "",
          "type": "string"
        }
      ],
      "stateMutability": "view",
      "type": "function"
    },
    {
      "inputs": [],
      "name": "numGamesWon",
      "outputs": [
        {
          "internalType": "uint256",
          "name": "",
          "type": "uint256"
        }
      ],
      "stateMutability": "view",
      "type": "function"
    },
    {
      "inputs": [
        {
          "internalType": "contract Game",
          "name": "gameWon",
          "type": "address"
        }
      ],
      "name": "receivePrize",
      "outputs": [],
      "stateMutability": "payable",
      "type": "function"
    },
    {
      "inputs": [
        {
          "internalType": "contract Game",
          "name": "game",
          "type": "address"
        }
      ],
      "name": "registerGame",
      "outputs": [],
      "stateMutability": "nonpayable",
      "type": "function"
    },
    {
      "inputs": [],
      "name": "withdraw",
      "outputs": [],
      "stateMutability": "nonpayable",
      "type": "function"
    }
  ],
  "bytecode": "0x608060405260006002556000600560006101000a81548160ff0219169083151502179055503480156200003157600080fd5b506040516200120c3803806200120c8339818101604052810190620000579190620001f2565b81600360006101000a81548173ffffffffffffffffffffffffffffffffffffffff021916908373ffffffffffffffffffffffffffffffffffffffff1602179055508060049080519060200190620000b0929190620000b9565b5050506200040a565b828054620000c79062000315565b90600052602060002090601f016020900481019282620000eb576000855562000137565b82601f106200010657805160ff191683800117855562000137565b8280016001018555821562000137579182015b828111156200013657825182559160200191906001019062000119565b5b5090506200014691906200014a565b5090565b5b80821115620001655760008160009055506001016200014b565b5090565b6000620001806200017a8462000275565b6200024c565b9050828152602081018484840111156200019957600080fd5b620001a6848285620002df565b509392505050565b600081519050620001bf81620003f0565b92915050565b600082601f830112620001d757600080fd5b8151620001e984826020860162000169565b91505092915050565b600080604083850312156200020657600080fd5b60006200021685828601620001ae565b925050602083015167ffffffffffffffff8111156200023457600080fd5b6200024285828601620001c5565b9150509250929050565b6000620002586200026b565b90506200026682826200034b565b919050565b6000604051905090565b600067ffffffffffffffff821115620002935762000292620003b0565b5b6200029e82620003df565b9050602081019050919050565b6000620002b882620002bf565b9050919050565b600073ffffffffffffffffffffffffffffffffffffffff82169050919050565b60005b83811015620002ff578082015181840152602081019050620002e2565b838111156200030f576000848401525b50505050565b600060028204905060018216806200032e57607f821691505b6020821081141562000345576200034462000381565b5b50919050565b6200035682620003df565b810181811067ffffffffffffffff82111715620003785762000377620003b0565b5b80604052505050565b7f4e487b7100000000000000000000000000000000000000000000000000000000600052602260045260246000fd5b7f4e487b7100000000000000000000000000000000000000000000000000000000600052604160045260246000fd5b6000601f19601f8301169050919050565b620003fb81620002ab565b81146200040757600080fd5b50565b610df2806200041a6000396000f3fe60806040526004361061009b5760003560e01c80636aee3fb1116100645780636aee3fb114610175578063767800de146101a05780637dc421a2146101cb5780639b36057c14610208578063c04c594714610231578063e7c974a81461025c5761009b565b8062c03ee6146100a057806306fdde03146100dd57806328102e54146101085780633ccfd60b146101335780636395fa271461014a575b600080fd5b3480156100ac57600080fd5b506100c760048036038101906100c2919061081e565b610278565b6040516100d491906109fb565b60405180910390f35b3480156100e957600080fd5b506100f26102b7565b6040516100ff9190610a16565b60405180910390f35b34801561011457600080fd5b5061011d610345565b60405161012a9190610ab8565b60405180910390f35b34801561013f57600080fd5b5061014861034b565b005b34801561015657600080fd5b5061015f610515565b60405161016c9190610ab8565b60405180910390f35b34801561018157600080fd5b5061018a610522565b60405161019791906109d9565b60405180910390f35b3480156101ac57600080fd5b506101b56105b0565b6040516101c291906109be565b60405180910390f35b3480156101d757600080fd5b506101f260048036038101906101ed919061081e565b6105d6565b6040516101ff91906109fb565b60405180910390f35b34801561021457600080fd5b5061022f600480360381019061022a91906107f5565b610615565b005b34801561023d57600080fd5b5061024661067b565b60405161025391906109d9565b60405180910390f35b610276600480360381019061027191906107f5565b610709565b005b6000818154811061028857600080fd5b906000526020600020016000915054906101000a900473ffffffffffffffffffffffffffffffffffffffff1681565b600480546102c490610c23565b80601f01602080910402602001604051908101604052809291908181526020018280546102f090610c23565b801561033d5780601f106103125761010080835404028352916020019161033d565b820191906000526020600020905b81548152906001019060200180831161032057829003601f168201915b505050505081565b60025481565b6000479050600360009054906101000a900473ffffffffffffffffffffffffffffffffffffffff1673ffffffffffffffffffffffffffffffffffffffff163373ffffffffffffffffffffffffffffffffffffffff16146103e0576040517f08c379a00000000000000000000000000000000000000000000000000000000081526004016103d790610a58565b60405180910390fd5b600560009054906101000a900460ff1615610430576040517f08c379a000000000000000000000000000000000000000000000000000000000815260040161042790610a78565b60405180910390fd5b60008111610473576040517f08c379a000000000000000000000000000000000000000000000000000000000815260040161046a90610a98565b60405180910390fd5b6001600560006101000a81548160ff021916908315150217905550600360009054906101000a900473ffffffffffffffffffffffffffffffffffffffff1673ffffffffffffffffffffffffffffffffffffffff166108fc829081150290604051600060405180830381858888f193505050501580156104f6573d6000803e3d6000fd5b506000600560006101000a81548160ff02191690831515021790555050565b6000600180549050905090565b606060018054806020026020016040519081016040528092919081815260200182805480156105a657602002820191906000526020600020905b8160009054906101000a900473ffffffffffffffffffffffffffffffffffffffff1673ffffffffffffffffffffffffffffffffffffffff168152602001906001019080831161055c575b5050505050905090565b600360009054906101000a900473ffffffffffffffffffffffffffffffffffffffff1681565b600181815481106105e657600080fd5b906000526020600020016000915054906101000a900473ffffffffffffffffffffffffffffffffffffffff1681565b6000819080600181540180825580915050600190039060005260206000200160009091909190916101000a81548173ffffffffffffffffffffffffffffffffffffffff021916908373ffffffffffffffffffffffffffffffffffffffff16021790555050565b606060008054806020026020016040519081016040528092919081815260200182805480156106ff57602002820191906000526020600020905b8160009054906101000a900473ffffffffffffffffffffffffffffffffffffffff1673ffffffffffffffffffffffffffffffffffffffff16815260200190600101908083116106b5575b5050505050905090565b6000341161074c576040517f08c379a000000000000000000000000000000000000000000000000000000000815260040161074390610a38565b60405180910390fd5b346002600082825461075e9190610b28565b925050819055506001819080600181540180825580915050600190039060005260206000200160009091909190916101000a81548173ffffffffffffffffffffffffffffffffffffffff021916908373ffffffffffffffffffffffffffffffffffffffff16021790555050565b6000813590506107da81610d8e565b92915050565b6000813590506107ef81610da5565b92915050565b60006020828403121561080757600080fd5b6000610815848285016107cb565b91505092915050565b60006020828403121561083057600080fd5b600061083e848285016107e0565b91505092915050565b600061085383836108cc565b60208301905092915050565b61086881610b7e565b82525050565b600061087982610ae3565b6108838185610b06565b935061088e83610ad3565b8060005b838110156108bf5781516108a68882610847565b97506108b183610af9565b925050600181019050610892565b5085935050505092915050565b6108d581610bcc565b82525050565b6108e481610bcc565b82525050565b60006108f582610aee565b6108ff8185610b17565b935061090f818560208601610bf0565b61091881610cb3565b840191505092915050565b6000610930601183610b17565b915061093b82610cc4565b602082019050919050565b6000610953602783610b17565b915061095e82610ced565b604082019050919050565b6000610976601783610b17565b915061098182610d3c565b602082019050919050565b6000610999601383610b17565b91506109a482610d65565b602082019050919050565b6109b881610bc2565b82525050565b60006020820190506109d3600083018461085f565b92915050565b600060208201905081810360008301526109f3818461086e565b905092915050565b6000602082019050610a1060008301846108db565b92915050565b60006020820190508181036000830152610a3081846108ea565b905092915050565b60006020820190508181036000830152610a5181610923565b9050919050565b60006020820190508181036000830152610a7181610946565b9050919050565b60006020820190508181036000830152610a9181610969565b9050919050565b60006020820190508181036000830152610ab18161098c565b9050919050565b6000602082019050610acd60008301846109af565b92915050565b6000819050602082019050919050565b600081519050919050565b600081519050919050565b6000602082019050919050565b600082825260208201905092915050565b600082825260208201905092915050565b6000610b3382610bc2565b9150610b3e83610bc2565b9250827fffffffffffffffffffffffffffffffffffffffffffffffffffffffffffffffff03821115610b7357610b72610c55565b5b828201905092915050565b6000610b8982610ba2565b9050919050565b6000610b9b82610b7e565b9050919050565b600073ffffffffffffffffffffffffffffffffffffffff82169050919050565b6000819050919050565b6000610bd782610bde565b9050919050565b6000610be982610ba2565b9050919050565b60005b83811015610c0e578082015181840152602081019050610bf3565b83811115610c1d576000848401525b50505050565b60006002820490506001821680610c3b57607f821691505b60208210811415610c4f57610c4e610c84565b5b50919050565b7f4e487b7100000000000000000000000000000000000000000000000000000000600052601160045260246000fd5b7f4e487b7100000000000000000000000000000000000000000000000000000000600052602260045260246000fd5b6000601f19601f8301169050919050565b7f6e6f207072697a65207265636569766564000000000000000000000000000000600082015250565b7f796f7520617265206e6f7420616c6c6f7720746f20776974686472617720746860008201527f652066756e647300000000000000000000000000000000000000000000000000602082015250565b7f5472616e73616374696e6720696e2070726f6772657373000000000000000000600082015250565b7f6e6f7468696e6720746f20776974686472617700000000000000000000000000600082015250565b610d9781610b90565b8114610da257600080fd5b50565b610dae81610bc2565b8114610db957600080fd5b5056fea2646970667358221220db5979c8d470549ba0f61d708e8ac164e15acca2417056e2fa41f64a1168d5c464736f6c63430008020033",
  "linkReferences": {},
  "deployedLinkReferences": {}
}